:020000040800F2
:10000000C808002045010008951900089719000844
:100010009B1900089F190008A319000800000000A0
:10002000000000000000000000000000A719000808
:10003000A919000800000000AB190008AD1900085C
:100040005F0100085F0100085F0100085F01000810
:100050005F0100085F0100085F0100085F01000800
:100060005F0100085F0100085F0100085F010008F0
:100070005F0100085F0100085F0100085F010008E0
:100080005F0100085F0100085F0100085F010008D0
:100090005F0100085F0100085F0100085F010008C0
:1000A0005F0100085F0100085F0100085F010008B0
:1000B0005F0100085F0100085F0100085F010008A0
:1000C0005F0100085F0100085F0100085F01000890
:1000D0005F0100085F0100085F0100085F01000880
:1000E0005F0100085F0100085F0100085F01000870
:1000F0005F0100085F0100085F0100085F01000860
:100100005F0100085F0100084D2C00085F01000836
:100110005F0100085F0100085F0100085F0100083F
:100120005F0100085F0100085F0100085F0100082F
:10013000DFF80CD003F0D6FA004800474119000858
:10014000C80800200648804706480047FEE7FEE74B
:10015000FEE7FEE7FEE7FEE7FEE7FEE7FEE7FEE777
:1001600047020008310100080CB500200190009002
:100170006C48006840F480306A49086000BF6948F4
:10018000006800F4003000900198401C0190009835
:1001900018B90198B0F5A06FF1D16248006800F479
:1001A000003010B10120009001E000200090009884
:1001B000012843D15C48006840F010005A490860AB
:1001C0000846006820F0030008600846006840F018
:1001D0000200086053484068524948600846406839
:1001E00048600846406840F48060486008464068BF
:1001F00020F47C1048600846406840F4E8104860ED
:100200000846006840F08070086000BF45480068FC
:1002100000F000700028F9D04248406820F0030048
:10022000404948600846406840F00200486000BF0E
:100230003C48406800F00C000828F9D10CBD10B50E
:10024000FFF792FF10BD10B53648006840F001007E
:1002500034490860084640683449084031494860DC
:1002600008460068324908402E4908600846006880
:1002700020F4802008600846406820F4FE004860B2
:100280004FF41F008860FFF7DAFF4FF00060294944
:10029000086010BD10B5002100200022214B5B68D2
:1002A00003F00C0121B1042906D0082928D107E068
:1002B000214B224C236027E01F4B204C236023E07E
:1002C000184B5B6803F47010164B5B6803F48032C4
:1002D000022303EB904022B9194B4343174C236090
:1002E0000DE0104B5B6803F4003323B1144B434320
:1002F000124C236003E0104B4343104C236003E097
:100300000D4B0E4C236000BF00BF064B5B68C3F370
:1003100003130C4CE15C094B1B68CB40074C23607A
:1003200010BD000000100240002002400000FFF855
:10033000FFFFF6FE08ED00E000127A00000000204A
:1003400000093D000400002031490143314A116099
:10035000704770B5002100230F22C47804B32D4CE0
:10036000246804F4E064C4F5E064210AC1F10403E4
:10037000CA40447804FA03F1847814402143090107
:10038000254C0678A155047804F01F050124AC40E3
:1003900005786D11AD0005F1E025C5F8004109E0D3
:1003A000047804F01F050124AC401C4D067876113A
:1003B00045F8264070BD1A4A0A400243154B1B1FE0
:1003C0001A60704739B1134A121D12680243114B6B
:1003D0001B1D1A6006E00F4A121D126882430D4B66
:1003E0001B1D1A607047042808D14FF0E0210969ED
:1003F00041F004014FF0E022116107E04FF0E021ED
:10040000096921F004014FF0E022116170470000FA
:100410000000FA050CED00E000E400E080E100E0FF
:1004200080FFFF1F10B50446CC48844208D101214B
:10043000042000F02DFB0021042000F029FB46E001
:10044000C748844208D10121082000F021FB002187
:10045000082000F01DFB3AE0C248844208D1012187
:10046000102000F015FB0021102000F011FB2EE001
:10047000BD48844208D10121202000F009FB002161
:10048000202000F005FB22E0B848844208D1012179
:10049000402000F0FDFA0021402000F0F9FA16E0BB
:1004A000B348844208D10121802000F0F1FA0021F4
:1004B000802000F0EDFA0AE0AE48844207D1012125
:1004C000801500F0E5FA0021A01500F0E1FA10BD5A
:1004D00010B50121084600F0DBFA0021012000F0F0
:1004E000D7FA10BD2DE9F041024600250026002074
:1004F00000230024002791F803C00CF00F0591F8A9
:1005000003C00CF0100CBCF1000F03D091F802C036
:100510004CEA050591F800C0BCF1000F31D0146819
:1005200000202BE04FF0010C0CFA00F3B1F800C0F2
:100530000CEA03069E4220D183004FF00F0C0CFA08
:1005400003F7BC4305FA03FC4CEA040491F803C02A
:10055000BCF1280F06D14FF0010C0CFA00FCC2F8D8
:1005600014C00AE091F803C0BCF1480F05D14FF068
:10057000010C0CFA00FCC2F810C0401C0828D1D3B2
:100580001460B1F800C0BCF1FF0F34DD54680020E6
:100590002EE000F1080C4FF0010808FA0CF3B1F856
:1005A00000C00CEA03069E4221D183004FF00F0CDD
:1005B0000CFA03F7BC4305FA03FC4CEA040491F877
:1005C00003C0BCF1280F05D100F1080C08FA0CF8A3
:1005D000C2F8148091F803C0BCF1480F07D100F1B4
:1005E000080C4FF0010808FA0CF8C2F81080401C03
:1005F0000828CED35460BDE8F0814FF6FF7101802A
:10060000022181700421C170704702460020936866
:100610000B400BB1012000E00020704701468868C4
:1006200080B2704702460020D3680B400BB1012016
:1006300000E0002070470146C86880B27047016141
:100640007047416170470AB1016100E04161704744
:10065000C16070474FF480320A43826181618261D8
:1006600082698269704702460020434B18684FF642
:100670008073184040EA021008433F4B18607047EF
:100680003E49C8617047F0B50A46002300240021A6
:10069000002500F00046B6F1004F02D1364EF16958
:1006A00001E0354E7168C0F3034583B200F4401693
:1006B000B6F5401F08D121F070612F4E766826F004
:1006C00070662D4F7E6012E000F48016B6F5801F34
:1006D00006D1032606FA05F4A14341F0706106E055
:1006E000460D360103FA06F6B14341F0706122B1BE
:1006F000460D360103FA06F6314300F00046B6F126
:10070000004F02D11C4EF16101E01B4E7160F0BD43
:1007100030B500228B071C0F0F2303FA04F2164B8F
:1007200008338C1053F824309343134C08348D1045
:1007300044F8253023468C1053F824308C07240FBE
:1007400000FA04F423430C4C08348D1044F825308F
:1007500030BD0A49DC3108607047000000080140E4
:10076000000C01400010014000140140001801403D
:10077000001C014000200140000001400000204218
:10078000DF48006840F00100DD4908600846406825
:10079000DC490840DA49486008460068DA49084000
:1007A000D74908600846006820F4802008600846A1
:1007B000406820F4FE0048604FF41F0088607047D6
:1007C000CF49096821F48031CD4A1160114609688A
:1007D00021F480211160B0F5803F03D0B0F5802F67
:1007E0000ED106E0C649096841F48031C44A11605F
:1007F00007E0C349096841F4A021C14A116000E043
:1008000000BF00BF704710B5014600220023002042
:100810004A11012A02D1BA4C236806E0022A02D109
:10082000B74C236A01E0B64C636A01F01F02012451
:1008300094401C400CB1012000E0002010BD38B5F0
:10084000002000900024002500BF3120FFF7DBFFCF
:1008500005460098401C00900098B0F5A06F01D0AC
:10086000002DF2D03120FFF7CEFF08B1012400E0C7
:100870000024204638BD01460020A14A106820F01F
:10088000F80040EAC10010607047A0490860704756
:10089000024600209A4B586820F47C1042EA01037B
:1008A0001843974B5860704798490866704701464F
:1008B0000020934A506820F00300084350607047BE
:1008C0008F48406800F00C007047014600208C4AB9
:1008D000506820F0F0000843506070470146002047
:1008E000874A506820F4E060084350607047014632
:1008F0000020834A506820F4605040EAC1005060F4
:10090000704729B17E4A527A02437D4B5A7204E005
:100910007B4A527A82437A4B5A7270477B49D8316C
:100920000860704701460020754A506820F4404036
:100930000843506070470021714A20321170704A9C
:1009400082F82010012802D004280AD104E00121F5
:100950006B4A2032117005E00521694A203211707E
:1009600000E000BF00BF70476949086070476449F4
:10097000096A0143624A1162704765494439086057
:10098000704730B500210022002400235C4D6D68C3
:1009900005F00C0121B1042905D0082923D105E077
:1009A0005C4D056022E05B4D05601FE0544D6D68B5
:1009B00005F47012524D6D6805F48034022505EB84
:1009C00092421CB9544D554305600BE04C4D6D6887
:1009D00005F400351DB1504D5543056002E04D4D05
:1009E0005543056002E04B4D056000BF00BF444D1C
:1009F0006D6805F0F0010909484D6B5C0568DD4044
:100A000045603F4D6D6805F4E061090A434D6B5C3C
:100A10004568DD4085603A4D6D6805F46051C90A4E
:100A20003E4D6B5C4568DD40C560354D6D6805F435
:100A30004041890B3A4D6B5CC568B5FBF3F5056128
:100A400030BD29B12E4A526902432D4B5A6104E050
:100A50002B4A526982432A4B5A61704729B1284A6E
:100A600092690243264B9A6104E0254A92698243C7
:100A7000234B9A61704729B1214AD2690243204B26
:100A8000DA6104E01E4AD26982431D4BDA61704785
:100A900029B11B4AD2680243194BDA6004E0184AB4
:100AA000D2688243164BDA60704729B1144A126942
:100AB0000243134B1A6104E0114A12698243104B3E
:100AC0001A61704712494039086070470F49C8647D
:100AD00070470B49C87170470948406A40F0807000
:100AE00007494862704701460020054A92680A405B
:100AF0000AB1012000E00020704701498872704768
:100B0000001002400000FFF8FFFFF6FE0000424226
:100B10008004424200127A0000093D0014000020C7
:100B20002400002010B50446FE48844208D101216B
:100B3000C014FFF7ADFF0021E014FFF7A9FFC4E0E8
:100B4000B4F1804F08D101210846FFF7AEFF002124
:100B50000120FFF7AAFFB8E0F348844208D1012141
:100B60000220FFF7A2FF00210220FFF79EFFACE06A
:100B7000EE48844208D101210420FFF796FF0021AE
:100B80000420FFF792FFA0E0E948844208D1012148
:100B90000820FFF78AFF00210820FFF786FF94E076
:100BA000E448844208D101211020FFF77EFF002194
:100BB0001020FFF77AFF88E0DF48844208D1012146
:100BC0002020FFF772FF00212020FFF76EFF7CE05E
:100BD000DA48844208D101214014FFF759FF00216F
:100BE0006014FFF755FF70E0D548844209D1012118
:100BF000C804FFF74DFF00214FF40020FFF748FF26
:100C000063E0D048844209D101210805FFF740FF85
:100C100000214FF48010FFF73BFF56E0CA488442A2
:100C200009D101214805FFF733FF00214FF40010DF
:100C3000FFF72EFF49E0C548844208D1012140203A
:100C4000FFF733FF00214020FFF72FFF3DE0C048B2
:100C5000844208D101218020FFF727FF0021802056
:100C6000FFF723FF31E0BB48844208D10121801502
:100C7000FFF71BFF0021A015FFF717FF25E0B6487F
:100C8000844209D101210804FFF702FF00214FF43B
:100C90008030FFF7FDFE18E0B048844209D1012101
:100CA0004804FFF7F5FE00214FF40030FFF7F0FE97
:100CB0000BE0AB48844208D101218804FFF7E8FE2D
:100CC00000214FF48020FFF7E3FE10BD00220288D0
:100CD000944B98420ED0994B98420BD0B0F1804F74
:100CE00008D0914B984205D0904B984202D0904B3F
:100CF000984204D14FF68F731A404B881A438D4B9C
:100D0000984207D08C4B984204D04FF6FF431A40CC
:100D1000CB881A4302808B8883850B880385814B9F
:100D200098420BD0854B984208D08B4B984205D007
:100D30008A4B984202D08A4B984201D10B7A0386A3
:100D400001238382704770B5002400220023058CA4
:100D50004FF6FE7635400584028C8388048B4FF66F
:100D60008F752C40B51E2C400D882C43751E2A40D3
:100D70000D892A434D882A436A4DA8420BD06F4DF6
:100D8000A84208D0744DA84205D0744DA84202D0A4
:100D9000734DA84213D14FF6F7752A404D892A4367
:100DA0004FF6FB752A408D882A434FF6FF652B408E
:100DB0004FF6FF552B408D892B43CD892B438380E4
:100DC0000483CD888586028470BD70B5002400221E
:100DD0000023058C4FF6EF7635400584028C83881E
:100DE000048B48F6FF752C404FF6FF452C400D88CC
:100DF0004FF6FF7606EA05252C434FF6DF752A40AD
:100E00000D8906EA05152A434D8806EA05152A4389
:100E1000444DA84202D0494DA8421DD14FF67F75DE
:100E20002A404D894FF6FF7606EA05152A434FF60C
:100E3000BF752A408D8806EA05152A434FF6FF350F
:100E40002B404FF2FF752B408D8906EA85052B4319
:100E5000CD8906EA85052B4383800483CD880587E9
:100E6000028470BD70B5002400220023058C4FF66B
:100E7000FF6635400584028C8388848B4FF68F751E
:100E80002C404FF6FC752C400D882C434FF6FF5537
:100E90002A400D894FF6FF7606EA05252A434D883C
:100EA00006EA05252A431F4DA84202D0234DA84239
:100EB0001DD14FF2FF752A404D894FF6FF7606EAA5
:100EC00005252A434FF6FF352A408D8806EA052579
:100ED0002A434EF6FF752B404DF6FF752B408D894A
:100EE00006EA05152B43CD8906EA05152B438380B9
:100EF0008483CD888587028470BD70B5002200236D
:100F00000024058C4EF6FF7635400584038C8488DA
:100F1000828B48F6FF752A404FF6FF452A400D8820
:100F200020E00000002C01400004004000080040C8
:100F3000000C00400010004000140040003401404C
:100F4000004C014000500140005401400018004096
:100F5000001C0040002000400040014000440140CF
:100F6000004801404FF6FF7606EA05252A434DF674
:100F7000FF752B400D8906EA05352B434D8806EA9F
:100F800005352B43FA4DA84202D0FA4DA84208D1AC
:100F90004BF6FF752C408D894FF6FF7606EA8515D6
:100FA0002C4384808283CD88A0F84050038470BD98
:100FB000828B4FF2FF331A408283828B4FF6FF738E
:100FC00003EA01231A4382837047F0B50C461546A5
:100FD000002200210026078C4EF6FF7C07EA0C0752
:100FE0000784828B018C4FF6FF7707EA043640F6C0
:100FF000FF473A404FF6FF7707EA05273A434FF697
:10100000FF7707EA03373A43D94FB8420ED0D94F9A
:10101000B8420BD0B0F1804F08D0D74FB84205D0BE
:10102000D64FB84202D0D64FB84206D14DF6FF7720
:10103000394046F48057394305E047F6FF573940B9
:1010400044F48057394382830184F0BD828B4FF68C
:10105000F3731A408283828B0A4382837047F0B510
:101060000C461546002200210026078C4FF6FF6C27
:1010700007EA0C070784828B018C4FF6FF7707EA9B
:1010800004264FF60C773A404FF6FF7707EA03172E
:101090002F433A43B64FB8420ED0B64FB8420BD0AA
:1010A000B0F1804F08D0B44FB84205D0B34FB8422A
:1010B00002D0B34FB84206D14FF6FF57394046F43D
:1010C0008077394305E04FF2FF57394044F4807789
:1010D000394382830184F0BD028B4FF2FF331A4003
:1010E0000283028B4FF6FF7303EA01231A43028344
:1010F0007047F0B50C461546002200210026078CEB
:101100004FF6EF7C07EA0C070784028B018C4FF641
:10111000FF7707EA041640F6FF473A404FF6FF779D
:1011200007EA03373A434FF6FF7707EA05273A43C2
:101130008F4FB8420ED08F4FB8420BD0B0F1804FD6
:1011400008D08D4FB84205D08C4FB84202D08C4F9A
:10115000B84206D14FF6DF77394046F010073943E1
:1011600005E04FF65F77394044F0100739430283BA
:101170000184F0BD028B4FF6F3731A400283028B99
:101180000A4302837047F0B50C4615460022002141
:10119000068C4FF6FE773E400684028B018C4FF69C
:1011A0000C7632407E1C06EA03162E433243704E04
:1011B000B0420ED06F4EB0420BD0B0F1804F08D08D
:1011C0006D4EB04205D06D4EB04202D06C4EB04272
:1011D00006D14FF6FD76314044F00106314305E07B
:1011E0004FF6F576314044F0010631430283018425
:1011F000F0BD70B505460C465D4885420ED05D4891
:1012000085420BD0B5F1804F08D05B48854205D0B0
:101210005A48854202D05A48854200D100E000BFBA
:10122000208850B92389A28861882846FFF7ABFF40
:10123000E1882846FFF79EFF25E0208804280AD190
:101240002389A28861882846FFF753FFE188284652
:10125000FFF742FF17E0208808280AD12389A288D7
:1012600061882846FFF7FBFEE1882846FFF7EEFE7F
:1012700009E02389A28861882846FFF7A6FEE18855
:101280002846FFF795FE70BD2DE9F04105460C4656
:1012900000260127608808B9022600E00026A08801
:1012A000012801D1022700E001272088A0B9238965
:1012B000A28861882846FFF766FFE1882846FFF785
:1012C00059FF23893A4631462846FFF712FFE18845
:1012D0002846FFF701FF13E02389A288618828468A
:1012E000FFF707FFE1882846FFF7F6FE23893A4615
:1012F00031462846FFF747FFE1882846FFF73AFFC7
:10130000BDE8F0810A884B881A438B881A43CB8842
:101310001A430B891A434B891A438B891A43A0F845
:10132000442070474FF6FF71818000210180C18009
:101330004180017270470021018041808180C1801D
:10134000018141818181C1817047002101804180FB
:10135000012181800021C18001817047002101802D
:1013600041808180C180018141818181704700007D
:10137000002C0140003401400004004000080040FF
:10138000000C004021B1028842F00102028004E01A
:1013900002884FF6FE731A400280704731B1B0F8F0
:1013A000442042F40042A0F8442005E0B0F8442074
:1013B000C2F30E02A0F8442070471AB183890B4390
:1013C000838102E083898B438381704781827047E8
:1013D00041EA0203A0F8483070471AB183890B43F1
:1013E000838102E083898B438381704701894FF6B3
:1013F000F8721140018170470A46002101894FF6B9
:101400008F73194011430181704730B504460D4672
:1014100029462046FFF7F0FF208940F00700208191
:1014200030BD2DE9F04104460D4616461F46602D9D
:1014300006D13B46012231462046FFF75AFE05E021
:101440003B46012231462046FFF79DFE29462046B5
:10145000FFF7D2FF208940F007002081BDE8F0812E
:1014600030B50C4600210189C9B24FF6FF7505EA77
:101470000325154325432943018130BD2DE9F04162
:1014800005460E4617469846002443463A463146DE
:101490002846FFF7E5FF2C894FF6F870044044F02A
:1014A00007044FF68F70044044F070042C81BDE8AF
:1014B000F081F0B504460D4616461F463B463246BF
:1014C00029462046FFF7CCFF208940F48040208148
:1014D000F0BD0185828270470A46002101884FF6DF
:1014E0008F731940114301807047F0B50C461546C3
:1014F0001E460021002200230189028B038C4FF637
:10150000F877394021434FF6FC473A4040F2011743
:101510003A434FF6DD773B404FF6FF7707EA061771
:101520002F433B43018102830384F0BD0A4600211F
:10153000018B4FF68F7319401143018370470A46A0
:101540000021018B48F6FF7319404FF6FF7303EA41
:1015500002231943018370470A460021818B4FF60D
:101560008F7319401143818370470A460021818B94
:1015700048F6FF7319404FF6FF7303EA022319433D
:101580008183704721B1028842F08002028004E02A
:1015900002884FF67F731A400280704721B182881B
:1015A00042F00402828004E082884FF6FB731A4006
:1015B0008280704721B1828842F00802828004E074
:1015C00082884FF6F7731A408280704721B1828873
:1015D00042F00102828004E082884FF6FE731A40D6
:1015E000828070470A460021018B4FF6F77319403D
:1015F0001143018370470A460021018B4FF2FF73AC
:1016000019404FF6FF7303EA022319430183704721
:101610000A460021818B4FF6F773194011438183ED
:1016200070470A460021818B4FF2FF7319404FF635
:10163000FF7303EA02231943818370470A4600219E
:10164000018B4FF6FB7319401143018370470A4623
:101650000021018B4FF6FF3319404FF6FF7303EA69
:1016600002231943018370470A460021818B4FF6FC
:10167000FB7319401143818370470A460021818B17
:101680004FF6FF3319404FF6FF7303EA0223194365
:10169000818370470A460021018B4FF67F73194002
:1016A0001143018370470A460021018BC1F30E01EB
:1016B0004FF6FF7303EA02231943018370470A467A
:1016C0000021818B4FF67F7319401143818370474E
:1016D0000A460021818BC1F30E014FF6FF7303EA26
:1016E00002231943818370470A460021018C4FF67B
:1016F000FD7319401143018470470A460021018C93
:101700004FF6F77319401143018470470A460021D0
:10171000018C4FF6DF7319404FF6FF7303EA021393
:101720001943018470470A460021018C4FF67F73EC
:1017300019404FF6FF7303EA0213194301847047FF
:101740000A460021018C4FF6FF5319404FF6FF73F4
:1017500003EA02231943018470470A460021018CE1
:101760004FF2FF7319404FF6FF7303EA0223194348
:10177000018470470A460021018C4DF6FF73194021
:101780004FF6FF7303EA023319430184704730B503
:10179000002301248C40A3B2048C9C430484048C59
:1017A00002FA01F5ADB22C43048430BD30B50023FC
:1017B00004248C40A3B2048C9C430484048C02FA5D
:1017C00001F5ADB22C43048430BD70B50346002052
:1017D00000241846183001258D40ACB21D8CA5435D
:1017E0001D8409B1082909D100EB6100056825F0C5
:1017F000700505600568154305600EE00D1FC5F313
:101800004E052844056825F4E045056005684FF657
:10181000FF7606EA02263543056070BD21B10288D5
:1018200042F00202028004E002884FF6FD731A4083
:101830000280704721B1028842F00402028004E075
:1018400002884FF6FB731A400280704721B18288EC
:1018500042F08002828004E082884FF67F731A4053
:101860008280704702884FF6F7731A400280028820
:101870000A430280704782884FF68F731A40828035
:1018800082880A438280704702894FF6F8731A40B3
:10189000028102890A430281704702894FF67F73F1
:1018A0001A40028102890A4302817047818470478D
:1018B00081857047818670470187704781877047AF
:1018C000A0F84010704702884FF6FF431A4002808C
:1018D00002880A43028070470146888E704701469D
:1018E000088F70470146888F70470146B1F8400065
:1018F00070470146888C70470146088D7047024644
:101900000020138A0B400BB1012000E0002070473B
:10191000CA430282704730B50246002000230024EB
:10192000158A05EA0103958905EA010413B10CB192
:10193000012000E0002030BDCA4302827047000051
:101940000120134908704FF4A060FEF7FDFC00F081
:10195000EBFB00F0CBFC00F0DFFE002141F61F4066
:1019600000F0B8F90A48007801280BD1472142F26B
:101970000F7000F0B7F901F0E9F9312141F61F408D
:1019800000F06FF903E000F0D5FE01F011FAFAE77C
:1019900028000020704700BFFEE700BFFEE700BF41
:1019A000FEE700BFFEE770477047704710B500F0D4
:1019B00046F810BD30B50146B1F1807F01D301205A
:1019C00030BD21F07F40401E4FF0E02250615017A3
:1019D0000F22002807DA13071D0E3E4B00F00F04FC
:1019E000241F1D5503E013071C0E3B4B1C5400BF66
:1019F00000204FF0E0229061072010610020DFE717
:101A000010B5364800683649B0FBF1F42046FFF7C0
:101A1000D1FF08B100BFFEE710BD01B53149009804
:101A200008604FF0E020006940F001004FF0E02135
:101A3000086100BF2B4800680028FBD108BD294879
:101A4000006820B127480068401E2649086070479A
:101A500031B5224800682449B0FBF1F52846FFF76C
:101A6000A9FF002408E000BF4FF0E020006900F467
:101A700080300028F8D0641C00988442F3D34FF0E3
:101A8000E020006920F001004FF0E021086138BD3E
:101A900031B5124800684FF47A71B0FBF1F5284671
:101AA000FFF788FF002408E000BF4FF0E020006946
:101AB00000F480300028F8D0641C00988442F3D3EE
:101AC0004FF0E020006920F001004FF0E0210861B4
:101AD00038BD000018ED00E000E400E00000002048
:101AE000A08601003C00002040420F0008B5012103
:101AF0000420FEF7B3FF4020ADF8000018208DF859
:101B0000030003208DF8020069466E48FEF7EAFCE8
:101B100001210420FEF7A2FF8020ADF8000018206C
:101B20008DF8030003208DF8020069466548FEF732
:101B3000D9FC01210820FEF791FF0120ADF800003B
:101B400018208DF8030003208DF8020069465E48D6
:101B5000FEF7C8FC01210820FEF780FF0220ADF847
:101B6000000018208DF8030003208DF8020069465C
:101B70005548FEF7B7FC08BD30B587B005460C46A2
:101B800001210220FEF777FFADF81450ADF81040A8
:101B90000020ADF81200ADF8160004A94B48FFF77D
:101BA00095F86020ADF800000120ADF8020000209B
:101BB000ADF80600ADF8080069464448FFF7C3F8E1
:101BC0006020ADF800000120ADF802000020ADF863
:101BD0000600ADF8080069463C48FFF7F6F86020BB
:101BE000ADF800000120ADF802000020ADF80600BD
:101BF000ADF8080069463548FFF734F96020ADF8C4
:101C000000000120ADF802000020ADF80600ADF89C
:101C1000080069462D48FFF770F908212B48FFF7A7
:101C2000E1FC08212948FFF7E6FC08212748FFF7D7
:101C3000EFFC08212548FFF7F4FC01212348FFF7BA
:101C4000A1FC01212148FFF79DFB07B030BD70B515
:101C500004460D46FFF74AFF29462046FFF78CFF52
:101C600070BD7FB505460C4632208DF8000002207D
:101C70008DF8010001208DF802008DF80300684600
:101C8000FEF767FB01210820FEF7F5FEADF80850CE
:101C9000ADF804400020ADF80600ADF80A0001A937
:101CA0000B48FFF713F801210948FFF731FE012225
:101CB00011460748FFF781FB01210548FFF762FB4A
:101CC0007FBD000000080140000C014000040040FE
:101CD000000C004070B504460D4629462046FFF72B
:101CE000B6FF70BD30B589B005460C460121C8026B
:101CF000FEF7B4FE01210420FEF7B0FE18208DF897
:101D000023004FF48070ADF8200003208DF82200EE
:101D100008A94348FEF7E6FBADF81850ADF81440AB
:101D20000020ADF81600ADF81A008DF81C0005A9CA
:101D30003C48FEF7CBFF6020ADF804000120ADF871
:101D400006000020ADF80A00ADF80C00ADF8100058
:101D500001A93448FEF7F7FF08213248FFF742FC9B
:101D600001213048FFF71AFB01212E48FFF70AFC3A
:101D700001212C48FFF706FB2B4800882949343104
:101D8000088009B030BD70B504460D46274800787C
:101D9000012805D12448008881B22248FFF78AFD36
:101DA000002C08DA4FF4E1502149088004F5E15095
:101DB000091D088008E04FF4E1501D49091D088005
:101DC000C4F5E150091F0880002D09DA4FF4E150F5
:101DD00017490831088005F5E150091D088008E021
:101DE0004FF4E15012490C310880C5F5E150091F4C
:101DF000088070BD2DE9F0478246504601F029FB6E
:101E000080460C4A0C4B01F060FA064600220B4B50
:101E100001F0E9F9044601F0FDFABDE8F0870000A1
:101E200000080140002C0140A000002028000020F4
:101E300034040040AE47E17A14AEF33F001FBC40CB
:101E400010B50A461AB10123FE4C236002E00023BC
:101E5000FC4C2360002115E00023FB4C236000F0C4
:101E6000800323B10123F74C0834236003E00023EF
:101E7000F44C083423600123F34C23604306180E0E
:101E80004B1CD9B20829E7DB0123EE4C236010BDBF
:101E900030B500241CE004F1B001C8B20021FFF706
:101EA000CFFF00210846FFF7CBFF00211020FFF7EE
:101EB000C7FF002508E0E54901EBC501085D0121E8
:101EC000FFF7BEFF681CC5B2802DF4DB601CC4B2F6
:101ED000082CE0DB30BD00B500218D20FFF7B0FFFE
:101EE00000211420FFF7ACFF0021AF20FFF7A8FF6F
:101EF00000BD00B500218D20FFF7A2FF00211020BA
:101F0000FFF79EFF0021AE20FFF79AFF00BD30B51E
:101F100000240CE0002506E00020CC4901EBC501BF
:101F20000855681CC5B2802DF6DB601CC4B2082CB5
:101F3000F0DBFFF7ADFF30BDF0B5144600267F287B
:101F400001DC3F2900DDF0BD0B46CF1701EB5777D1
:101F5000FF10C7F10707FAB2CF1701EB5777FF1051
:101F6000A1EBC707FDB2C5F107070123BB40DEB2F5
:101F70004CB1B64B03EBC0039B5C3343B34F07EB51
:101F8000C007BB5408E0B14B03EBC0039B5CB343F9
:101F9000AE4F07EBC007BB5400BFD4E72DE9F04FAD
:101FA00080460C4615461E46A346A5F12000C5B244
:101FB00000273EE00C2E07D105EB4500A44901EBBC
:101FC000800010F8079004E0A24800EB051010F81C
:101FD00007904FF0000A26E009F0800028B1214662
:101FE0004046099AFFF7A8FF09E0099808B90120BF
:101FF00000E00020024621464046FFF79DFF4FEAE1
:1020000049604FEA1069601CC4B2A4EB0B00B042F7
:1020100005D15C4608F1010000F0FF0806E00AF176
:10202000010000F0FF0ABAF1080FD5DB00BF781CF1
:10203000C7B2B742BEDBBDE8F08F10B50246012043
:1020400000E050430B1EA1F10104E1B2F9D110BD33
:102050002DE9FF4F81B0074691461E460E9D4FF079
:10206000000A002439E0301B401EC1B20A20FFF7ED
:10207000E4FFB9FBF0F00A21B0FBF1F201FB12081A
:10208000BAF1000F16D1701EA04213DDB8F1000F97
:102090000ED10120AB4605EBDB71491001FB047149
:1020A0000090C8B22B4620220299FFF777FF12E07A
:1020B0004FF0010A0120AB4605EBDB71491001FB33
:1020C00004710090C8B208F13001CAB22B460299DF
:1020D000FFF764FF00BF601CC4B2B442C3DB05B0AD
:1020E000BDE8F08F78B505460E46144618E07A2D07
:1020F00003DD002506F11000C6B23A2E04DD0020F3
:1021000005460646FFF703FF0120009022780C23C6
:1021100031462846FFF742FF05F10800C5B2641CAE
:1021200020780028E3D178BD08B5022000F056FBE6
:10213000012000F053FB01211820FEF78FFC012144
:102140000820FEF78BFC4FF48040ADF80000102013
:102150008DF8030003208DF8020069463E48FEF723
:10216000C1F92020ADF8000010208DF803000320F5
:102170008DF8020069463948FEF7B4F91020ADF831
:1021800000008DF8030003208DF8020069463348F3
:10219000FEF7A8F90820ADF8000010208DF8030024
:1021A00003208DF8020069462C48FEF79BF90020B9
:1021B0002449091D08606420FFF76AFC01202849B2
:1021C000C1F890010021AE20FFF73AFE0021D52092
:1021D000FFF736FE00215020FFF732FE0021A82035
:1021E000FFF72EFE00213F20FFF72AFE0021D3201B
:1021F000FFF726FE00210846FFF722FE00214020BF
:10220000FFF71EFE00218D20FFF71AFE002114208B
:10221000FFF716FE00212020FFF712FE002102200A
:10222000FFF70EFE0021A120FFF70AFE0021C020CB
:10223000FFF706FE0021DA20FFF702FE0021122040
:1022400010E000008C812142B8012242BC00002035
:1022500094490008084E000800100140000C01409D
:1022600000802142FFF7ECFD00218120FFF7E8FD0F
:102270000021EF20FFF7E4FD0021D920FFF7E0FD6A
:102280000021F120FFF7DCFD0021DB20FFF7D8FD66
:1022900000213020FFF7D4FD0021A420FFF7D0FD5E
:1022A0000021A620FFF7CCFD0021AF20FFF7C8FDDD
:1022B000FFF72DFE08BD10B500210022C306190E40
:1022C0000CE0002206E00023074C04EBC204635438
:1022D000531CDAB2802AF6DB4B1CD9B2431CB1EB9B
:1022E000C30FEEDB10BD0000BC00002008B50121CB
:1022F0001820FEF7B3FB01211020FEF7AFFB4820AA
:102300008DF803004FF48070ADF800006946F9487D
:10231000FEF7E8F810208DF803004001ADF800004A
:1023200003208DF802006946F348FEF7DBF8102021
:102330008DF80300ADF8000003208DF80200694617
:10234000ED48FEF7CFF810208DF803000001ADF83E
:10235000000003208DF802006946E748FEF7C2F846
:1023600008BD38B50446012000900020E3494870BC
:10237000012000902EE0BDF80000204018B101209F
:10238000DF49086002E00020DD4908600120DC49E7
:10239000091F08600520FFF75BFB0020D949C1F841
:1023A000A0010520FFF754FB0120D649C1F8A00188
:1023B000D548D0F8200130B1D0484078BDF80010A1
:1023C0000843CE494870BDF800004FF6FF7101EA9E
:1023D00040000090BDF80000FF28CCDD1020FFF782
:1023E00037FB38BD10B50020C54914390860C7490E
:1023F0000878FFF7B6FFC5494878FFF7B2FF01201C
:10240000C049C1F89001BD484078732801D100202F
:1024100010BD0120FCE71CB50020019001200090B8
:102420000020B74914390860B8490878FFF799FFC8
:10243000B6494878FFF795FF0220019036E0012069
:10244000009027E00120AE49091F08600520FFF732
:10245000FFFA0020AB49C1F8A0010520FFF7F8FA08
:102460000120A849C1F8A001A748D0F8200150B127
:10247000A2489DF80410405CBDF8001008439F4935
:102480009DF804208854BDF800004FF6FF7101EA62
:1024900040000090BDF80000FF28D3DD1020FFF7BA
:1024A000D7FA9DF80400401CC0B201909DF80400CA
:1024B0000928C4DB01209249143908601CBD0020A2
:1024C00004E000218D4A1154411CC8B20928F8DBF0
:1024D000704710B5FFF7F3FFFFF79DFF8748C078FF
:1024E0008649097940EA01208949088000240FE0E3
:1024F000884810F81400401E012101FA00F08449B8
:102500000988084010B9601CC0B210BD601CC4B27C
:10251000102CEDDB0020F8E701467848405C70475E
:1025200070B505460C460020754914390860102026
:10253000FFF78EFA0120FFF714FF4220FFF711FF8B
:102540000020FFF70EFF2846FFF70BFF2046FFF79E
:1025500008FF0020FFF705FF0020FFF702FF002023
:10256000FFF7FFFE0020FFF7FCFE01206549C1F8E0
:1025700090011020FFF76CFA70BD10B50020604983
:10258000143908601020FFF763FA0120FFF7E9FE15
:102590004220FFF7E6FE0020FFF7E3FE0020FFF7F2
:1025A000E0FE0020FFF7DDFE01205649C1F8900152
:1025B0001020FFF74DFA10BD10B500205049143916
:1025C00008601020FFF744FA0120FFF7CAFE4320FD
:1025D000FFF7C7FE0020FFF7C4FE0120FFF7C1FE92
:1025E0000020FFF7BEFE0020FFF7BBFE0020FFF734
:1025F000B8FE0020FFF7B5FE0020FFF7B2FE012075
:102600004049C1F890011020FFF722FA10BD10B523
:1026100000203B49143908600120FFF7A2FE442046
:10262000FFF79FFE0020FFF79CFE0120FFF799FEB9
:102630000320FFF796FE0020FFF793FE0020FFF730
:1026400090FE0020FFF78DFE0020FFF78AFE01209C
:102650002C49C1F890011020FFF7FAF910BD10B510
:1026600000202749143908601020FFF7F1F90120F4
:10267000FFF777FE4D20FFF774FE0020FFF771FE95
:102680000020FFF76EFE0120FFF76BFE01201D49C1
:10269000C1F890011020FFF7DBF910BD10B5002044
:1026A0001749143908601020FFF7D2F90120FFF70D
:1026B00058FE4320FFF755FE0020FFF752FE002092
:1026C000FFF74FFE5A20FFF74CFE5A20FFF749FE56
:1026D0005A20FFF746FE5A20FFF743FE5A20FFF725
:1026E00040FE01200749C1F890011020FFF7B0F922
:1026F00010BD0000000C014000100140BC0400208F
:10270000A401224200002242008021424600002013
:10271000440000204800002010B5FFF72EFFFFF70F
:102720002CFFFFF72AFFFFF747FFFFF770FFFFF7C8
:10273000B5FF10BD10B5FFF7CCFE1C49086007209F
:10274000FFF7EAFE1A4908600820FFF7E5FE19497D
:1027500008600520FFF7E0FE174908600620FFF734
:10276000DBFE1649086011480068042805D11448AA
:10277000007810B90120134908601248006898B128
:102780000C48006876280FDA0D48007860B90120FF
:102790000B4908700C480D4908600D480078012865
:1027A00002D10C480C49086010BD000078000020E0
:1027B000680000206C0000207000002074000020E1
:1027C000340000207C0000200000614494000020C0
:1027D00028000020DB0F493F9800002001464906F1
:1027E000244A926942F00102224B9A61224A5268BD
:1027F00022F0E062204B5A601A4652680A435A603F
:10280000704708B50220FFF7E9FF0120FFF7E6FF58
:1028100001210420FEF722F94FF40040ADF800003A
:1028200010208DF8030002208DF80200694613483D
:10283000FDF758FE4FF400411048FDF702FF08BDB8
:1028400028B94FF400410D4A1432116011E00C49CF
:102850000968491C0A4A116081420ADB07490C31A8
:10286000096881F40041054A0C3211600021044AD4
:102870001160704700100240000001400008014054
:10288000800000202DE9F04105460E4614462F46F3
:102890003146384600F016FE00D23746214638460B
:1028A00000F006FE00D227463846BDE8F08110B59C
:1028B000FD494868FFF79EFA044600F075FDFA49A5
:1028C0000860FA494868FFF795FA044600F06CFD85
:1028D000F6490860F449F64A0868F649FFF7D2FF5E
:1028E000F1490860F149F24A0868F249FFF7CAFF66
:1028F000EE49086010BD03468B4201DA0846704776
:10290000934201DD1046FAE71846F8E770B506462F
:102910000D4614462946304600F0CAFD01D228462D
:1029200070BD2146304600F0CDFD01D22046F7E7CC
:102930003046F5E72DE9F04F91B004460E46DE4DE6
:10294000DE4ADF49DF480068FFF7E0FFDD49086045
:10295000DD4ADE49DE480068FFF7D8FFDC49086041
:10296000DC48007801287DD1DB481090B14648460C
:1029700000F06FFDCDE90A0101F0DAFF02460B46D7
:10298000CDE90C01A802D54900F09FFC074600F0F4
:1029900073FD8346584600F05CFDD14AD14BCDE92A
:1029A0000C0100F01AFC074600F066FD0F90584637
:1029B00000F04FFDCA4ACB4BCDE90C0100F06CFB97
:1029C000074600F059FD0E90C74AC8494846FFF730
:1029D0009DFF81460021484600F06AFD14D0204644
:1029E0000E9900F0E9FA0746594600F017FBAF4987
:1029F000486020460F9900F0DFFA0746594600F07C
:102A00000DFBA949486003E0A8484460A64844601B
:102A10004946B74800F0D0FA074600F01AFDCDE964
:102A20000801484600F015FD00224FF08043CDE933
:102A3000000101F06BFA07460022AE4B00F0D3FB19
:102A4000CDE90401484600F004FD07460022AA4BE8
:102A500001F05CFA4FF00042A84BCDE9000100F014
:102A6000C2FB00E046E0CDE90201DDE9042300F00D
:102A700013FBCDE90601DDE9082300F0AEFB0022DF
:102A80009F4BCDE90A0100F007FBCDE90C0100F0F6
:102A9000F3FC82469B49504600F088FA0D9010994D
:102AA00000F08AFA8046984900F02EFA074600F0B6
:102AB00084FC9649086085F000477B492A464868AF
:102AC0003946FFF723FF7849486085F0004777498A
:102AD0002A4648683946FFF719FF7449486040F6AE
:102AE00098024FF4487189480068FFF704FF87494E
:102AF000086000BF11B0BDE8F08F2DE9F047142445
:102B000083480068C0F1800982480068C0F1800AEB
:102B10006042814503DDA14501DA4FF000096042C2
:102B2000824503DDA24501DA4FF0000A484600F075
:102B30003BFC05464FF086417748006800F06EFA8E
:102B40000646294600F038FA5E4908606148007878
:102B5000012811D1504600F027FC06464FF086416F
:102B60006E48006800F05AFA80F000453146284669
:102B700000F022FA56490860694800680B281DD108
:102B800068480078401CC0B26649087014283BD1E0
:102B90000020634908606349087063495E48006823
:102BA00000F0B2F95C49086060495B48006800F0D9
:102BB00089FC29D25D485849086025E058480068DA
:102BC0000C281DD15A480078401CC0B258490870E2
:102BD000142819D1002052490860554908705249FB
:102BE0004D48006800F0E2F94B49086051494A48F5
:102BF000006800F05DFC07D24E484749086003E0DA
:102C000000204B49087008702E48006800F021FC35
:102C100007460022484B00F058FB054600F02CFC0C
:102C2000284908602A48006880F000402849086068
:102C300042480068401C4149086040F6B83188426B
:102C400002DD00203D490860BDE8F08770B5012134
:102C50003B48FEF760FE20B301213948FEF76CFEC9
:102C60003848007828B938480078012801D1FFF7A2
:102C700044FF1748016813480068FFF75BFEFFF741
:102C800016FE0A49086800F098FB064606480068E8
:102C900080F00045284600F090FB04463146FFF7DF
:102CA00072F8002070BD0000A4000020AC000020DD
:102CB00000A0D7C500A0D745000060409A99993F71
:102CC0009A9999BF84000020920A863F920A86BF93
:102CD0008800002028000020AE271F44976EC23FC6
:102CE00023DBF97E6ABCB43F0AD7A33E0AD7A3BE52
:102CF000E5D0E23FD34DF43F000008409318E4BF15
:102D0000022BF93F4C37C93F0000C844A000002007
:102D10006C0000207000002094000020980000202B
:102D200078000020B40000200000C84100C0994491
:102D3000B50000200000524300408F4038000020C2
:102D4000000C00409C000020340000200F48007858
:102D500018B10E480078012806D10D480D490860C9
:102D60000D480E49086010E008480078022806D196
:102D70000B48084908600B480849086005E00A4804
:102D80000449086009480549086070472800002088
:102D9000D589573E2C0000207D3F353E3000002075
:102DA000A3540A3E713D0A3E308C0D3E8D976E3E17
:102DB00038B54FF480613E4800F09BF80C200323A7
:102DC00000903C48002102680846FFF741F90C20BA
:102DD000032300903848002102681E20FFF738F9CD
:102DE0000C20032300903548002102683C20FFF7A7
:102DF0002FF90C20032300903148002102685A204B
:102E0000FFF726F92F49086800F0F0FA04460C2075
:102E100004232246282100900020FFF719F92A49AF
:102E2000086800F0E3FA04460C2004232246282117
:102E300000903C20FFF70CF90C200423009023485D
:102E40001E2102680020FFF703F92148006800F006
:102E5000CDFA04460C2003232246142100900020C2
:102E6000FFF7F6F81B48006800F0C0FA04460C2093
:102E700003232246142100902820FFF7E9F80C20B4
:102E80000223009014480A2102683220FFF7E0F87C
:102E900012A20A210020FFF725F9FEF7F9FF38BD3D
:102EA0000146002901DD0A4600E04A4290B270471F
:102EB000BC000020680000206C0000207000002092
:102EC00074000020A4000020AC000020A00000201E
:102ED0009400002098000020780000204B45593ACB
:102EE00000000000D2B201E000F8012B491EFBD225
:102EF00070470022F6E710B513460A460446194605
:102F0000FFF7F0FF204610BDF0B480EA0102D40FB5
:102F10004200B2EB410F02D20246084611464A0077
:102F200042D0C30DDDB2C1F3C752AD1A202D35DA40
:102F3000C1F3160141F4000204B15242C5F120066A
:102F400002FA06F12A411044B3EBD05F23D0C4B19A
:102F5000012DA0EBC35009DCF0BC4FF0004202EAA7
:102F6000C352DBB200F5000000F0F0BA400000F1FF
:102F7000807000EBC350A0F1807040EAD17049002E
:102F800009E0490841EAC071A0EBC35000F5000018
:102F9000400800EBC350F0BC00F0CFBA6142012200
:102FA00002EB4101001BF6E7F0BC704781F00041E5
:102FB000AAE780F00040A7E780EA010210B502F01E
:102FC0000043400022D04A001FD0010E01EB1261E5
:102FD000C0F35600C2F3560240F4000042F400026F
:102FE000A0FB022000047F39140400D0401C50EAEA
:102FF000124001D44000491EC2B20C0604EBD010AE
:10300000401C4008802A02D003E0002010BD20F0C0
:103010000100002900DA0020184310BD30B480EA16
:10302000010202F0004530F0004221F0004013D0D0
:1030300090B1C30DD40DC2F31601C0F31600E41A0B
:1030400041F4000140F400027D34914201D3641C3C
:1030500000E04900002C02DA30BC002070474FF439
:1030600000000023914201D3891A034340084FEA2C
:103070004101F7D151B1914202D14FF0004105E039
:1030800002D24FF0010101E06FF0010103EBC450E7
:10309000284430BC00F051BA2DE9FE4F804681EA49
:1030A0000300C00F0C46009021F0004123F00045C2
:1030B000B8EB0200A94105D24046214690461C4685
:1030C0000B46024623F00040104347D0270DC7F3BC
:1030D0000A00C3F30A510290401A019040286BDAAB
:1030E000C3F3130040F4801B0098924620B10023E4
:1030F000D2EB030A63EB0B0B01985946C0F1400277
:10310000504600F0E9F906460D4650465946019AE8
:1031100000F001FA10EB08006141002487EA115227
:1031200084EAE7731A4340D0009A62B3019A012AF5
:103130004FEA075215DC001B61EB02014FF0004221
:1031400002EA0752CDE90042001C41F580113246E7
:103150002B4600F038FA03B0BDE8F08F4046214618
:10316000F9E7001B61EB0201001C41F58013001818
:103170005B412018A2F5001747EB030140EAD57028
:10318000B6196D4111E06D084FEA360645EAC07583
:103190004FEA0752001B61EB0201001C41F5801150
:1031A00049084FEA30000019514132462B4603B01E
:1031B000BDE8F04F00F0F8B900980122400000236C
:1031C000D0EB020263EBE073009821464FEAE07413
:1031D000B8EB000061EB0401E9E783F000435BE733
:1031E00081F0004158E72DE9FE4F81EA030404F025
:1031F000004421F0004100944FF0000B23F0004305
:1032000050EA01045ED052EA03045BD0C3F30A54CF
:10321000C1F30A552C44A4F2F3340194A0FB0254E8
:10322000C1F3130141F48011C3F3130343F480137A
:1032300001FB024400FB034E840A970A44EA8154CE
:1032400047EA8357A4FB076802958D0A05FB0785AB
:103250004FEA932C04FB0C542705029D4FEA0658B5
:1032600047EA1637B5EB08056EEB070C870E920E92
:1032700047EA811742EA8312A7FB0201B6EB0B0172
:1032800064EB00042B0D43EA0C335E1844EB1C5036
:10329000DA465146E7FB0201C5F313044FEA0B334C
:1032A00043EA14534FEA0432019C43EA0603A4F1B3
:1032B0000C040294009CCDE900B400F084F903B042
:1032C000BDE8F08F00200146F9E72DE9F04D81EAD5
:1032D000030404F0004B21F0004514464FF0000AAF
:1032E00023F0004150EA050220D054EA01021DD02B
:1032F000C5F30A570246C5F31303C1F31300C1F324
:103300000A5640F4801543F48013A7EB0608101BFF
:10331000D64608F2FD3873EB050002D308F1010828
:1033200001E092185B41B8F1000F03DA002001467A
:10333000BDE8F08D00204FF48011064684460EE073
:10334000171B73EB050705D3121B63EB050306433D
:103350004CEA010C49084FEA300092185B4150EAF0
:103360000107EDD152EA030012D082EA040083EA99
:103370000501084305D0101BAB4106D201220023F2
:1033800006E000224FF0004302E06FF0010253100C
:103390001AEB06004CEB085110EB0A0041EB0B0155
:1033A000BDE8F04D00F000B9C10F80EAE0700844BC
:1033B000CA079623002100F0C9B800F0004220F0AF
:1033C0000040C10DC0F3160040F400007F2901DA6F
:1033D00000207047962903DCC1F19601C84001E046
:1033E00096398840002AF4D04042704720F00040CF
:1033F000C10DC0F3160040F400007F2901DA00205F
:103400007047962903DCC1F19601C8407047963990
:103410008840704770B5C1F30A5201F0004500249E
:10342000C1F3130140F2FF3341F480119A4201DAF3
:10343000002070BD40F233439A42A2F2334203DCD3
:10344000524200F058F800E090402C43F1D0404246
:1034500070BD00F0004230F000400AD0C10D01F50F
:103460006071C0F3160042EA0151C20840071143DF
:10347000704700200146704701F0004330B421F04E
:10348000004150EA010206D00A0DA2F56072C1F3B4
:103490001301002A02DC30BC00207047440F44EACC
:1034A000C104C100E01830BC00EBC25000F045B8C8
:1034B000002801DBC0F10040002901DBC1F100411F
:1034C00081427047002801DBC0F10040002901DB88
:1034D000C1F1004188427047202A04DB203A00FAFB
:1034E00002F1002070479140C2F1200320FA03F35B
:1034F000194390407047202A04DB203A21FA02F059
:103500000021704721FA02F3D040C2F1200291401D
:10351000084319467047202A06DBCB17203A41FAA8
:1035200002F043EAE07306E041FA02F3D040C2F150
:10353000200291400843194670470029A8BF7047F0
:10354000401C490008BF20F00100704710B4B0FAD9
:1035500080FC00FA0CF050EA010404BF10BC704774
:1035600049B1CCF1200421FA04F411FA0CF118BF8E
:10357000012121430843A3EB0C01CB1D4FEA00615D
:103580004FEA102042BF002010BC704700EBC35030
:1035900010440029A4BF10BC7047401C490008BF5C
:1035A00020F0010010BC704710B5141E73F1000428
:1035B00008DA401C41F1000192185B411A4301D125
:1035C00020F0010010BD2DE9F04D92469B4611B14F
:1035D000B1FA81F202E0B0FA80F220329046FFF7B1
:1035E0007BFF04460F4640EA0A0041EA0B015346BE
:1035F0005A46084313D0114653EA010019D0C8F1C6
:1036000040025046FFF777FF05460E4650465946A2
:103610004246FFF761FF084305D0012004E0204641
:103620003946BDE8F08D0020054346EAE0762C439C
:1036300037430A986305E40AA0EB08000022FD0A5C
:1036400044EA47540A3002D500200146E9E7010563
:1036500010196941DDE9084500196941BDE8F04DDF
:10366000A2E770B521F0004303430CD0C1F30A5523
:103670000024D5EB040564EB0403D617AD1AB3415F
:1036800002DB0020014670BD201841EB025170BDE5
:103690000EB5C10F80EAE0700844CA07002140F26D
:1036A00033438DE80E000A460B46FFF78CFF03B04C
:1036B00000BD000030B5041E71F1000404DB4FF0C2
:1036C0000044404264EB0101141E73F1000405DB69
:1036D0001C464FF00043524263EB0403994208BF7B
:1036E000904230BD064C074D06E0E06840F0010313
:1036F00094E8070098471034AC42F6D3FCF71CFD61
:10370000B0550008D05500082DE9F04D00231A46A9
:103710001B1A8A4103DB00200146BDE8F08DC1F38E
:103720000A52C1F3130141F480154FF0000BD10789
:1037300002D100186D41521E0027044640F2FF11CD
:10374000384601EB620A3E468046024600204FF4AE
:103750008011FFF7D0FEC2197141BB1846EB010082
:10376000B4EB030C75EB000C04D3E41A65EB000515
:1037700017460E46241908F101006D418046342891
:10378000E3DDF91946EB0600091BA84103D24FF00F
:10379000FF32134601E0002213461BEB070046EB05
:1037A0000A51BDE8F04DFFF7FFBE0EB540F23341C0
:1037B00002910021CDE900110A460B46FFF703FFF5
:1037C00003B000BD490050EAC12018BF04204A0DD3
:1037D00018BF40F0010040F2FF72B2EB515F08BF2A
:1037E00040F00200012808BF052070472DE9F74F7F
:1037F000144694B00021C4E902111599079121F0F3
:103800000045C9498D4206DC1599C4E9000117B08D
:103810000020BDE8F08FC549DFF814A3A9423CDDC4
:103820000799C44E0029C44FC44A1599534619DD5F
:10383000FFF7D3FC554506D0C14AC24BFFF7CDFC7C
:10384000C4E900010AE04FF0D352BE4BFFF7C5FCBC
:1038500032463B46FFF7C1FCC4E9000117B0012026
:10386000BDE8F08FFFF718FC554506D0B44AB54BBC
:10387000FFF712FCC4E900010AE04FF0D352B14B4C
:10388000FFF70AFC32463B46FFF706FCC4E900019D
:1038900017B04FF0FF30BDE8F08FAB49A942159942
:1038A00078DB21F0004183468846A84AA84BFFF701
:1038B0009AFC0022A74BFFF7EFFBFFF7ABFD099047
:1038C000FFF7E6FE06460F469C4A5346FFF78BFC81
:1038D00043465A46FFF784FC80468A46984A994BED
:1038E00030463946FFF77FFC2A0D01250B924246F0
:1038F0005346FFF775FC032DC4E9000139D00B983E
:10390000C1F30A51401A05EB45111139814230DAF1
:103910009148C346784400EB0510CDF80CA00C90FC
:10392000D0E9002330463946FFF75DFC02460B46DE
:103930000491069058460399FFF74FFC80468A464B
:1039400002460B4658460399FFF747FC049B069A2C
:10395000FFF743FC83460C9803913946D0E90223D4
:103960003046FFF740FC5A46039BFFF736FC6D1CC0
:10397000BDE707980028A2BF099817B0BDE8F08FEF
:10398000616881F000416160099817B04042BDE86C
:10399000F08FFFE784461598C1F31301C0F30A5076
:1039A000A0F2F5304FEA601800F01F06C6F12000C3
:1039B000139000200690079041F4801E05206D466C
:1039C00076B1664A08EB00017A4452F8213002EBE6
:1039D0008101B3404A68139922FA01F1194305E0C5
:1039E0005F4908EB0002794451F82210A1FB0E2731
:1039F000A1FB0C131A449A4234BF0123002303EBAA
:103A0000070A05EB8003D3E901B70F448F4234BFA7
:103A10000121002193448B4411B1934502D903E065
:103A2000934501D2012100E00021C3E901B75144CF
:103A300045F82010011EA0F10100C1DC0298059F8D
:103A400000F10050800F12900298DDE903568000CB
:103A5000FFF71EFE834628460D91FFF7A6FE6FF086
:103A60001D02FFF7FEFDCDE90E013046FFF79DFE7A
:103A70006FF03D02FFF7F5FD80468A463846FFF7B6
:103A800094FE6FF05D02FFF7ECFD07464246534699
:103A90001191FFF701FBDDE90E23FFF7FDFA5A460E
:103AA0000D9BFFF7F9FA00250E465A4628460D9B56
:103AB000FFF793FBDDE90E23FFF78FFB42465346EA
:103AC000FFF78BFB3A46119BFFF78AFBDFF898A0C4
:103AD000244A5346FFF787FB07468846234A244B70
:103AE00031462846FFF77FFB3A464346FFF7D4FAB4
:103AF000074688464FF0A842534631462846FFF70E
:103B000072FB3A464346FFF7C7FA159A12F0004F88
:103B100004D0129A81F0004152421292C4E900018D
:103B2000129817B0BDE8F08FFB21E93F7CD9024025
:103B3000FB21F93F7370032E8A19A33B0000405408
:103B40003163621A61B4D03DFB21394183C8C96D2C
:103B5000305FE43F0000E03F701B0000EC1A000003
:103B6000CE1A0000182D4454FB21F93D3326A6112E
:103B7000460B113C2DE9F0414F1E00EBC7010446F6
:103B8000D1E9000115461E4637F006020DD02A463F
:103B90003346FFF728FB7F1E04EBC703D3E900235E
:103BA000FFF77AFA37F00602F1D1022F25D0042F61
:103BB00013D0062F18BFBDE8F0812A463346FFF721
:103BC00012FBD4E90A23FFF767FA2A463346FFF7C8
:103BD0000AFBD4E90823FFF75FFA2A463346FFF7CA
:103BE00002FBD4E90623FFF757FA2A463346FFF7CC
:103BF000FAFAD4E90423FFF74FFA2A463346FFF7CF
:103C0000F2FAD4E90223FFF747FA2A463346FFF7D0
:103C1000EAFAD4E90023BDE8F041FFF73DBA00001D
:103C20002DE9F04D04468CB0904821F0004716462F
:103C300098460D460991874206DA20462946FFF745
:103C4000E9FB002800F0AE808948B8421CDC0998E6
:103C50000028BCBF85F0004588F00048854A864BA7
:103C600020462946FFF7BCFA04460D463246434635
:103C700082488349FFF7B1FA22462B46FFF70CFA38
:103C8000002604460D46B04622462B4610461946ED
:103C9000FFF7A9FA8B46824602460B46FFF7A3FAC6
:103CA0000246089077480B46009106217844FFF7BA
:103CB00061FFCDE90310744806217844009B089AFF
:103CC000FFF758FF52465B46FFF78DFACDE9051026
:103CD00052465B4620462946FFF785FA0791009039
:103CE000DDE90310DDE90532FFF7D6F9079B009AFD
:103CF000FFF779FA32464346FFF7CEF952465B4664
:103D0000FFF771FA32464346FFF7C6F980460E4682
:103D10005E4A5F4B07990098FFF765FA42463346C3
:103D2000FFF7BAF982468B4622462B46FFF7B4F9D5
:103D300080464F480E46B84214985BDCFFF7A8FC5B
:103D40000746424633460591FFF7A6F9CDE9011033
:103D50004246334610461946FFF745FADDE901327F
:103D6000FFF7B3FA52465B46FFF737FA22462B4677
:103D7000FFF736FA0122FFF774FC3A46059BFFF77E
:103D80002FFA04460D460998022101EAA070C0F1FD
:103D90000100FFF77DFC0CB022462B46BDE8F04D3C
:103DA000FFF721BA1498401C384320430BD01498D5
:103DB000012812D00CB022462B46BDE8F04D002061
:103DC0003449FFF782BA0CB025F000432246BDE823
:103DD000F04D00203049FFF778BA20462946FFF71A
:103DE000F1FC042808BF00F073F820460CB0294607
:103DF000BDE8F08D012802BF40460CB0BDE8F08D53
:103E000000270B463A4620462946FFF7E9F9524675
:103E10005B46FFF7E5F904460D464246334600206F
:103E20001C49FFF752FA83463A4688463346104605
:103E3000FFF7D9F90022184BFFF72EF906468A46FC
:103E400022462B4638464146FFF7CDF932465346C7
:103E5000FFF722F95A464346FFF7C5F90CB03A4638
:103E60004346BDE8F04DFFF717B900000000303EB3
:103E70002894E53F182D4454FB21E93F075C143397
:103E800026A6813CA0180000C218000063555555B5
:103E90005555D53F0000F0BF0000F03F002213460B
:103EA00010460149FFF711BA0000F03F0122FFF769
:103EB000D8BBFFF7F1B80022134610461146FFF7B2
:103EC00004BA40F2013200204FF0E041FFF7C9BBD5
:103ED000024A00201107FFF7C4BB000001FDFFFFED
:103EE00002E008C8121F08C1002AFAD170477047C3
:103EF000002001E001C1121F002AFBD17047000021
:103F00000149086070470000B80000202DE9F04D1D
:103F10001D460C4698B0174621F0004123F000439F
:103F2000002814BF4FF0010C4FF0000C0CEB440CB8
:103F3000FE4A0CEB02064FEA620C66452BD33E00AC
:103F400018BF012606EB45061644F94A964222D3CD
:103F5000F84A53EA070C02D0944205D148B918B088
:103F600000201146BDE8F08D002808BF4FF0000C7E
:103F700001D04FF0010C0CEB440212F5001F0AD8DF
:103F8000002F14BF4FF0010C4FF0000C0CEB45025A
:103F900012F5001F07D918B03A462B462146BDE856
:103FA000F04DFFF786BF0022DFF88CA3002CB8BFCE
:103FB000534526DADFF884C36345A8BF022220DA1E
:103FC000DFF870C39C451CDCDFF874C30CEB235C8A
:103FD000BCF1140F08DDCCF1340627FA06FC0CFA0C
:103FE00006F6BE420DD108E05FB9CCF1140623FA03
:103FF00006FC0CFA06F69E4203D10CF00102C2F157
:10400000020251EA000C19D1002D17DA002C18BF5A
:10401000022A01D0012A07D00220FFF771FF18B051
:10402000BDE8F04DFFF73ABF0220FFF769FFFFF749
:1040300035FF18B081F00041BDE8F08DB7F1000CFC
:104040006CD1534525D104F1804212F5801201BF95
:1040500000280020B74918B008BFBDE8F08DB5486A
:10406000884207DC002DA1BF6046294618B0BDE894
:10407000F08D07E0281E05DA80F0004118B0604698
:10408000BDE8F08DAF497944D1E9000118B0BDE831
:10409000F08DDFF8A0C2634525D1002D1FDA19B1DC
:1040A000514512D1D8B909E0002840F0EC82A24A6B
:1040B000214618B062F31E01BDE8F08D00202146B4
:1040C00018B060F31E01BDE8F08D08DA18B0234681
:1040D000BDE8F04D024600206146FFF7F6B818B083
:1040E0002146BDE8F08D514518DAB5F1804F0DD06D
:1040F000A5F1005CBCF1FF5C10D1B4F1000C0DDB4C
:1041000018B06146BDE8F04D00F0ECBB234618B096
:104110000246BDE8F04D1946FFF765B8060024F0E9
:10412000004C3BD1D9B1514533D1002C06DD002DD7
:10413000A1BF0020514618B0BDE8F08D002C01DD74
:10414000002D1BDB002C13DA002D11DB012A4FF0B0
:10415000000014BF78497C4918B0BDE8F08D022AF0
:1041600018BF002C0AD0012A08D1002C06DA0AE078
:10417000002CB8BF002D11DA012A04D0002018B09D
:104180000146BDE8F08D18B000204FF00041BDE8B9
:10419000F08DA1F14050B0F17F601AD0012000EB0A
:1041A000E47050EA020421D0624C521E4FF0000B22
:1041B000104304BF4FF0000B644C654883427CDD24
:1041C000644A654893421FDD884217DB002D25DBDA
:1041D00037E0002C00DA4AB1022A0CBF01204FF070
:1041E000FF3018B0BDE8F04DFFF752BA0120FFF7DD
:1041F00087FE18B0BDE8F04DFFF75DBE4D4A8A421C
:1042000002DC002D0ADC1CE0814202DA002D18DA03
:1042100004E0484B994220DD002D12DD0220FFF71B
:104220006FFEFFF74EFE05460E46002253465846E7
:104230002146FEF7D8FF18B066F31E012846BDE8F8
:10424000F08D0220FFF75CFEFFF742FE0A46214692
:1042500018B062F31E01BDE8F08D002230466146C1
:10426000FEF7BBFF80460E466FF00102FFF7F9F93B
:104270004FF05532394BFEF7B3FF42463346FEF757
:10428000B2FF0022364BFEF7ABFF82464246334672
:10429000049110461946FEF7A6FF5246049BFEF70E
:1042A000A2FF8A4600904FF0C0422E4B4046314656
:1042B000FEF799FF2C4A2B4B00E027E0CDE90601E1
:1042C00051460098FEF78FFF82460191274A284BFE
:1042D00040463146FEF787FF5246019BFEF77DFFC1
:1042E00082460B4602460591DDE90601FEF7D4FE43
:1042F000DDE90623002688463046FEF76EFF52466B
:10430000059BFEF76DFF024600F07EB90020B1F577
:10431000801F07DA352230466146FFF7A2F90646CC
:104320006FF0340000EB215024E00000FFFF1F007D
:10433000FFFF0F000000F03F0000F07F000040434F
:1043400001FCFFFFF61300000000F0FF0000F0BFCB
:104350000000E0410000F043FFFFEF3F5555D53F1F
:104360000000E03F4715F73FFE822B6544DF5DF814
:104370000BAE543EA0F2FF300190C1F3130040F0A9
:104380007F6141F040510291FE498842D8BF002030
:1043900004DDFD498142C8BF012001DD0D9008E028
:1043A00000200D900198401C01900298A0F580100B
:1043B00002900299F54878440B910D9900EBC100E9
:1043C000D0E900230F9330460A920B99FEF705FFC0
:1043D000CDE90601DDE90A2130460F9BFEF75CFEC0
:1043E00002460B460020EA49FEF76FFF05910246A0
:1043F0000B460090DDE90601FEF7F5FE1490E54856
:104400008A464FF0000878440299006812904FF0F5
:10441000005040EA61010D980F9B01EB804000F5D0
:10442000002109910A9A1298FEF7D7FE32460B9B9B
:10443000FEF7D6FE42465346FEF7D5FE06460291EB
:1044400040465146099B129AFEF7CDFEDDE9062350
:10445000FEF7C6FE3246029BFEF7BFFE059B009AA2
:10446000FEF7C1FE0091149A049053461046194677
:10447000FEF7B9FE06460246C7480B4602910621E2
:104480007844FFF777FBCDE90510029B32461046D2
:104490001946FEF7A8FEDDE90532FEF7A4FE0591F8
:1044A0000646534640461946149AFEF7F5FD009B12
:1044B000049AFEF798FE3246059BFEF7EDFDCDE926
:1044C00005104246534610461946FEF78CFE002260
:1044D000B24B02910A90FEF7DFFDDDE90532FEF7EF
:1044E000DBFD0E464246AD4B4046FEF776FE029B94
:1044F0000A9AFEF772FEDDE90532FEF771FE4246CA
:1045000002910A90334610465146FEF76CFECDE903
:1045100006015346149A02990A98FEF764FE8A46E9
:1045200002903346424600990498FEF75CFE5346DB
:10453000029AFEF7B1FD82460B4602460591DDE97F
:104540000601FEF7A9FDDDE90623002088460646A0
:10455000FEF743FE5246059BFEF742FE8246099156
:104560004FF060428E4B30464146FEF73CFE0490D1
:1045700006918C4A8A4B50460999FEF734FE8246D2
:104580000291894A894B30464146FEF72CFE52463D
:10459000029BFEF781FD864B7B440D9A03EBC20321
:1045A000D3E90023FEF778FD0E9007910198FFF7FD
:1045B0006FF80591DDE9061382460E9A0498FEF71E
:1045C0006BFD7C4A7A440D9B02EBC303D3E90023C5
:1045D00000930292FEF760FD5246059BFEF75CFDDC
:1045E0000026884652463046059BFEF7F6FD009BA6
:1045F000029AFEF7F2FD069B049AFEF7EEFD079B7A
:104600000E9AFEF7EDFD024600200B46029038465A
:104610002946FEF7E8FD824601912B4638461946A9
:10462000029AFEF7DAFD32464346FEF7DCFD5246BB
:10463000019BFEF731FD07468A463246434629462E
:104640000298FEF7D0FD05460E463A465346FEF761
:1046500023FD594A8846914221DBA8EB020353EA25
:10466000000210D12A463346FEF7B7FDCDE904011A
:10467000524A534B38465146FEF70EFDDDE90423FE
:10468000FFF718F821D20220FFF73AFCFFF719FCD8
:104690000A46214618B062F31E01BDE8F08D494B71
:1046A00028F000429A4210D3474A08EB020353EA2B
:1046B00000027FF4C6AD2A463346FEF78EFD3A4629
:1046C0005346FEF7F7FF7FF6BCAD0022019228F0BB
:1046D00000403E493E4A01EB2051824223DA481C09
:1046E0004FF4801121FA00F040443A4AC0F30A51D5
:1046F0007A44394BA1F2FF31CB4020EA0303C0F3E7
:10470000130040F48010C1F11401C84012680190F8
:10471000B8F1000FBCBF4042019028463146FEF779
:104720005CFD05460E462A46334638465146FEF79E
:10473000B3FC4FF000084246284B40460591FEF777
:1047400052FDCDE90601264A264B40460599FEF763
:104750004AFD009102902A46334640460599FEF7ED
:104760003CFD3A465346FEF73BFD1F4A1F4BFEF702
:104770003AFD009B029AFEF78FFC074688460246E8
:104780000B4635E08E9803007AB60B003E10000011
:104790000000F03F76100000A40F00000000084069
:1047A00009C7EE3FFD033ADCF5015B14E02F3EBE86
:1047B0007C0E0000400E000000009040FE822B6541
:1047C0004715973C00CC904000346F3F01FCFFFF41
:1047D0000000E03F8C0D0000FFFF0F00432EE63F7E
:1047E000396CA80C615C20BEEF39FAFE422EE63F20
:1047F000DDE90601FEF750FCDDE9062305460E461D
:10480000FEF7EBFC3A464346FEF7EAFC0F462A4623
:104810003346009010461946FEF7E5FC82460246F4
:104820002E4888460B4605217844FFF7A3F95246E7
:104830004346FEF7D8FC2A463346FEF7D1FC8046B5
:104840008A463B4628463146009AFEF7CCFC3B465A
:10485000009AFEF721FC0691009000224FF0804361
:1048600040465146FEF7B9FC0F460C90424653466F
:1048700028463146FEF7B7FC3B460C9AFEF725FD6D
:10488000069B009AFEF7A9FC2A463346FEF7A5FCD4
:104890000022134BFEF7A4FC054601980E4601EBDF
:1048A00000510815002810DC28463146019AFEF711
:1048B000D8FEFEF787FF042808BFFFF709FB28464C
:1048C0003146019AFEF7CDFE05460B4618B02A4642
:1048D00058462146BDE8F04DFEF785BC2C0C000083
:1048E0000000F03F2DE9F04106460F46FEF70CFFB1
:1048F000041E0D4618BF0120284320F00040C0F1DF
:104900007F6000F1E040C00F0ED0301C18BF0120C6
:10491000384320F00040C0F17F6000F1E040C00F5C
:1049200004BF0120FFF7ECFA20462946BDE8F081DC
:1049300010B5164B21F00042012486B09A4203DCE8
:104940000022134600941CE0114B9A4208D140B952
:104950004FF00100FFF7D4FAFFF7ADFA06B010BD33
:1049600003DBFFF7A3FA06B010BD02AAFEF73EFF75
:1049700000F00100A4EB40000DF1080C00909CE851
:104980000F00FFF74DF906B010BD0000FB21E93F15
:104990000000F07F000000000000000000000000A8
:1049A000000000003F400000000000000000300058
:1049B000400030004000000009000BC03D000BC06B
:1049C0003D00090018C024407FE0224031800000F3
:1049D000180024C01B000D803240018003801C4061
:1049E00027401C80074000401000600000000000CD
:1049F000000000000000000000001F802040402058
:104A00000000402020401F80000000000900060038
:104A10001F80060009000000040004003F8004001D
:104A20000400000000100060000000000000000012
:104A30000400040004000400040000000000004022
:104A40000000000000000000002001C00600380047
:104A5000400000001F802040204020401F800000B8
:104A6000000010403FC000400000000018C021407E
:104A70002240244018400000108020402440244060
:104A80001B80000002000D0011003FC0014000002B
:104A90003C80244024402440238000001F80244088
:104AA00024403440038000003000200027C038003C
:104AB000200000001B802440244024401B80000074
:104AC0001C0022C0224022401F8000000000000085
:104AD000084000000000000000000000046000002A
:104AE00000000000000004000A0011002080404087
:104AF0000900090009000900090000000000404009
:104B0000208011000A000400180020002340240027
:104B1000180000001F802040274029401F4000004F
:104B2000004007C039000F0001C0004020403FC0D6
:104B3000244024401B8000001F8020402040204053
:104B40003080000020403FC0204020401F800000F7
:104B500020403FC024402E4030C0000020403FC0D5
:104B600024402E00300000000F0010802040224022
:104B70003380020020403FC0040004003FC02040BA
:104B8000204020403FC02040204000000060202006
:104B900020203FC02000200020403FC024400B00C8
:104BA00030C0204020403FC020400040004000C0B6
:104BB0003FC03C0003C03C003FC0000020403FC05D
:104BC0000C4023003FC020001F8020402040204098
:104BD0001F80000020403FC0244024001800000037
:104BE0001F802140214020E01FA0000020403FC046
:104BF0002440260019C0004018C024402440224010
:104C000031800000300020403FC0204030000000D4
:104C100020003F80004000403F80200020003E00F8
:104C200001C0070038002000380007C03C0007C062
:104C300038000000204039C0060039C02040000084
:104C40002000384007C0384020000000304021C01C
:104C50002640384020C00000000000007FE04020D7
:104C600040200000000070000C00038000400000A5
:104C70000000402040207FE00000000000002000F5
:104C80004000200000000000001000100010001084
:104C900000100010000000004000000000000000B4
:104CA000000002800540054003C0004020003FC0D6
:104CB00004400440038000000000038004400440DE
:104CC0000640000000000380044024403FC0004034
:104CD0000000038005400540034000000000044040
:104CE0001FC0244024402000000002E00550055071
:104CF0000650042020403FC00440040003C0004090
:104D00000000044027C00040000000000010001018
:104D1000041027E00000000020403FC001400700D1
:104D200004C00440204020403FC00040004000003C
:104D300007C0040007C0040003C00000044007C00F
:104D40000440040003C0004000000380044004400D
:104D500003800000041007F00450044003800000AA
:104D6000000003800440045007F00010044007C016
:104D70000240040004000000000006400540054019
:104D800004C00000000004001F8004400040000038
:104D9000040007800040044007C0004004000700F2
:104DA00004C0018006000400060001C0070001C025
:104DB00006000000044006C0010006C004400000D8
:104DC0000410071004E00180060004000000044005
:104DD00005C00640044000000000000004007BE025
:104DE00040200000000000000000FFF00000000074
:104DF000000040207BE00400000000004000800034
:104E000040002000200040000000000000000000E2
:104E100000000000000000000000000000001FCCA7
:104E2000000C0000000000000000080030006000DE
:104E30000800300060000000022003FC1E20022059
:104E400003FC1E200220000000000E1811043FFF8A
:104E500010840C78000000000F0010840F3800C090
:104E6000077818840078000000780F8410C411249B
:104E70000E9800E40084000808006800700000003C
:104E8000000000000000000000000000000007E03B
:104E900018182004400200000000400220041818E6
:104EA00007E00000000000000240024001800FF017
:104EB00001800240024000000080008000800FF866
:104EC00000800080008000000001000D000E000046
:104ED0000000000000000000000000800080008052
:104EE00000800080008000800000000C000C0000AA
:104EF0000000000000000000000000060018006034
:104F00000180060018002000000007F008081004C7
:104F10001004080807F000000000080408041FFC43
:104F2000000400040000000000000E0C1014102407
:104F3000104411840E0C000000000C181004110421
:104F4000110412880C700000000000E0032004240B
:104F500008241FFC0024000000001F981084110486
:104F60001104108810700000000007F00888110478
:104F7000110418880070000000001C00100010FCD4
:104F800013001C001000000000000E3811441084B3
:104F9000108411440E38000000000700088C1044F3
:104FA0001044088807F00000000000000000030C17
:104FB000030C0000000000000000000000010106DA
:104FC00000000000000000000000008001400220FE
:104FD0000410080810040000022002200220022011
:104FE0000220022002200000000010040808041023
:104FF000022001400080000000000E001200100C92
:10500000106C10800F00000003E00C1813E414244F
:1050100017C4082807D000000004003C03C41C404B
:10502000074000E4001C000410041FFC11041104DC
:1050300011040E880070000003E00C181004100426
:10504000100410081C10000010041FFC10041004B1
:105050001004080807F0000010041FFC11041104DC
:1050600017C410040818000010041FFC11041100DC
:1050700017C010000800000003E00C181004100412
:1050800010441C780040000010041FFC10840080B5
:10509000008010841FFC10040000100410041FFC8A
:1050A00010041004000000000003000110011001B2
:1050B0001FFE10001000000010041FFC11040380EC
:1050C0001464181C1004000010041FFC10040004D9
:1050D00000040004000C000010041FFC1F0000FC72
:1050E0001F001FFC1004000010041FFC0C04030030
:1050F00000E010181FFC100007F00808100410044E
:105100001004080807F0000010041FFC1084108031
:10511000108010800F00000007F0081810241024E1
:10512000101C080A07F2000010041FFC11041100F3
:1051300011C011300E0C000400000E1C110410846C
:10514000108410441C3800001800100010041FFCCC
:10515000100410001800000010001FF810040004D4
:10516000000410041FF8100010001E0011E0001CC5
:10517000007013801C0010001FC0103C00E01F00D6
:1051800000E0103C1FC000001004180C163401C0D1
:1051900001C01634180C100410001C00130400FC8D
:1051A00013041C00100000000804101C106410847C
:1051B00013041C04101800000000000000007FFE13
:1051C0004002400240020000000030000C0003805A
:1051D0000060001C0003000000004002400240028A
:1051E0007FFE0000000000000000000020004000E2
:1051F000400040002000000000010001000100010B
:1052000000010001000100010000400040002000FA
:10521000000000000000000000000098012401448C
:105220000144014400FC000410001FFC008801043C
:105230000104008800700000000000700088010474
:1052400001040104008800000000007000880104CF
:10525000010411081FFC0004000000F8014401448F
:105260000144014400C800000000010401040FFCD7
:105270001104110411001800000000D601290129B1
:10528000012901C90106000010041FFC008401006F
:105290000100010400FC000400000104190419FCD1
:1052A00000040004000000000000000300010101F0
:1052B000190119FE0000000010041FFC002400402A
:1052C00001B4010C010400000000100410041FFCD4
:1052D0000004000400000000010401FC01040100BE
:1052E00001FC0104010000FC010401FC0084010038
:1052F0000100010400FC0004000000F801040104A6
:105300000104010400F80000010101FF008501040F
:105310000104008800700000000000700088010493
:105320000104010501FF00010104010401FC0084E6
:105330000104010001800000000000CC01240124D0
:10534000012401240198000000000100010007F879
:105350000104010400000000010001F80004000441
:105360000004010801FC0004010001800170000C30
:10537000001001600180010001F0010C003001C04B
:105380000030010C01F0010000000104018C0074E8
:105390000170018C01040000010101810171000E06
:1053A000001801600180010000000184010C01343B
:1053B00001440184010C0000000000000000000016
:1053C00001003EFC4002400200000000000000001E
:1053D000FFFF0000000000000000400240023EFC11
:1053E000010000000000000000006000800080005C
:1053F0004000400020002000000000000000F03FBE
:10540000000000000000F83F000000000000000065
:105410000000004003B8E23F000000000000000070
:1054200006D0CF43EBFD4C3E033333333333E33FFE
:10543000FFAB6FDBB66DDB3F4D268F515555D53F2A
:1054400001411DA96074D13F65DBC9934A86CD3FF8
:10545000EF4E454A287ECA3F3E5555555555C53FE6
:1054600093BDBE166CC166BF2CDE25AF6A56113FD8
:10547000F16BD2C541BDBBBED0A4BE726937663EDA
:10548000000000000000000000004054FB21F93F34
:105490003163621A61B4D03D0000601A61B4D03D3E
:1054A0007370032E8A19A33B0000002E8A19A33BB8
:1054B000C14920259A837B390000000000000000CC
:1054C0006E83F9A22915444ED15727FCC0DD34F56F
:1054D000999562DB4190433CAB6351FE61C5BBDEF5
:1054E0003A6E24B7E0D24D42EA2E49061C92D10909
:1054F0001CEB1DFE3EA729B1F53582E88444BB2E86
:1055000026709CE9417E5FB439D69139F4395383D2
:105510008B5F849C3B28F9BDFF97F81F0F9805DE31
:105520008B112FEF1F6D0A5ACF7E366DB709CB272F
:10553000663F464F2DEA5F9EC7BA27757BF1E5EBC4
:10554000F739073DEA92528AB15FFB6B085D8D1F08
:105550007AFE10111111C13F37D60684F464963FCC
:10556000280356C9226D6D3F0165F2F2D844433FCE
:10557000A69237A0887E143F735360DBCB75F3BED1
:10558000FE41B31BBAA1AB3F93846EE9E326823F91
:105590001583E0FEC8DB573F68108D1AF726303FB1
:1055A000E9A7F0320FB8123FD47ABF74702AFB3EDD
:1055B000D055000800000020BC000000E03E0008BC
:1055C0008C560008BC0000200C080000F03E0008CB
:1055D00000A24A04000000000000000001020304D1
:1055E0000607080900000000010203040102030489
:1055F0000607080902040608000000000000000079
:10560000000000000000000000000000000000009A
:10561000000000000000014201000200030004003D
:10562000050006000700080009000A000B000C0036
:105630000D000E000F001000000000000000000030
:10564000000000000000000000000000000000005A
:10565000000000000000000000000000000000004A
:10566000000000000000000000000000000000003A
:1056700040060000000000000000000000000000E4
:0C5680000000000000000000000000001E
:0400000508000131BD
:00000001FF
