:020000040800F2
:10000000B008002045010008A1190008A319000844
:10001000A7190008AB190008AF190008000000007C
:10002000000000000000000000000000B3190008FC
:10003000B519000800000000B7190008B919000838
:100040005F0100085F0100085F0100085F01000810
:100050005F0100085F0100085F0100085F01000800
:100060005F0100085F0100085F0100085F010008F0
:100070005F0100085F0100085F0100085F010008E0
:100080005F0100085F0100085F0100085F010008D0
:100090005F0100085F0100085F0100085F010008C0
:1000A0005F0100085F0100085F0100085F010008B0
:1000B0005F0100085F0100085F0100085F010008A0
:1000C0005F0100085F0100085F0100085F01000890
:1000D0005F0100085F0100085F0100085F01000880
:1000E0005F0100085F0100085F0100085F01000870
:1000F0005F0100085F0100085F0100085F01000860
:100100005F0100085F010008792900085F0100080D
:100110005F0100085F0100085F0100085F0100083F
:100120005F0100085F0100085F0100085F0100082F
:10013000DFF80CD002F086FE0048004741190008A5
:10014000B00800200648804706480047FEE7FEE763
:10015000FEE7FEE7FEE7FEE7FEE7FEE7FEE7FEE777
:1001600047020008310100080CB500200190009002
:100170006C48006840F480306A49086000BF6948F4
:10018000006800F4003000900198401C0190009835
:1001900018B90198B0F5A06FF1D16248006800F479
:1001A000003010B10120009001E000200090009884
:1001B000012843D15C48006840F010005A490860AB
:1001C0000846006820F0030008600846006840F018
:1001D0000200086053484068524948600846406839
:1001E00048600846406840F48060486008464068BF
:1001F00020F47C1048600846406840F4E8104860ED
:100200000846006840F08070086000BF45480068FC
:1002100000F000700028F9D04248406820F0030048
:10022000404948600846406840F00200486000BF0E
:100230003C48406800F00C000828F9D10CBD10B50E
:10024000FFF792FF10BD10B53648006840F001007E
:1002500034490860084640683449084031494860DC
:1002600008460068324908402E4908600846006880
:1002700020F4802008600846406820F4FE004860B2
:100280004FF41F008860FFF7DAFF4FF00060294944
:10029000086010BD10B5002100200022214B5B68D2
:1002A00003F00C0121B1042906D0082928D107E068
:1002B000214B224C236027E01F4B204C236023E07E
:1002C000184B5B6803F47010164B5B6803F48032C4
:1002D000022303EB904022B9194B4343174C236090
:1002E0000DE0104B5B6803F4003323B1144B434320
:1002F000124C236003E0104B4343104C236003E097
:100300000D4B0E4C236000BF00BF064B5B68C3F370
:1003100003130C4CE15C094B1B68CB40074C23607A
:1003200010BD000000100240002002400000FFF855
:10033000FFFFF6FE08ED00E000127A00000000204A
:1003400000093D000400002031490143314A116099
:10035000704770B5002100230F22C47804B32D4CE0
:10036000246804F4E064C4F5E064210AC1F10403E4
:10037000CA40447804FA03F1847814402143090107
:10038000254C0678A155047804F01F050124AC40E3
:1003900005786D11AD0005F1E025C5F8004109E0D3
:1003A000047804F01F050124AC401C4D067876113A
:1003B00045F8264070BD1A4A0A400243154B1B1FE0
:1003C0001A60704739B1134A121D12680243114B6B
:1003D0001B1D1A6006E00F4A121D126882430D4B66
:1003E0001B1D1A607047042808D14FF0E0210969ED
:1003F00041F004014FF0E022116107E04FF0E021ED
:10040000096921F004014FF0E022116170470000FA
:100410000000FA050CED00E000E400E080E100E0FF
:1004200080FFFF1F10B50446CC48844208D101214B
:10043000042000F02DFB0021042000F029FB46E001
:10044000C748844208D10121082000F021FB002187
:10045000082000F01DFB3AE0C248844208D1012187
:10046000102000F015FB0021102000F011FB2EE001
:10047000BD48844208D10121202000F009FB002161
:10048000202000F005FB22E0B848844208D1012179
:10049000402000F0FDFA0021402000F0F9FA16E0BB
:1004A000B348844208D10121802000F0F1FA0021F4
:1004B000802000F0EDFA0AE0AE48844207D1012125
:1004C000801500F0E5FA0021A01500F0E1FA10BD5A
:1004D00010B50121084600F0DBFA0021012000F0F0
:1004E000D7FA10BD2DE9F041024600250026002074
:1004F00000230024002791F803C00CF00F0591F8A9
:1005000003C00CF0100CBCF1000F03D091F802C036
:100510004CEA050591F800C0BCF1000F31D0146819
:1005200000202BE04FF0010C0CFA00F3B1F800C0F2
:100530000CEA03069E4220D183004FF00F0C0CFA08
:1005400003F7BC4305FA03FC4CEA040491F803C02A
:10055000BCF1280F06D14FF0010C0CFA00FCC2F8D8
:1005600014C00AE091F803C0BCF1480F05D14FF068
:10057000010C0CFA00FCC2F810C0401C0828D1D3B2
:100580001460B1F800C0BCF1FF0F34DD54680020E6
:100590002EE000F1080C4FF0010808FA0CF3B1F856
:1005A00000C00CEA03069E4221D183004FF00F0CDD
:1005B0000CFA03F7BC4305FA03FC4CEA040491F877
:1005C00003C0BCF1280F05D100F1080C08FA0CF8A3
:1005D000C2F8148091F803C0BCF1480F07D100F1B4
:1005E000080C4FF0010808FA0CF8C2F81080401C03
:1005F0000828CED35460BDE8F0814FF6FF7101802A
:10060000022181700421C170704702460020936866
:100610000B400BB1012000E00020704701468868C4
:1006200080B2704702460020D3680B400BB1012016
:1006300000E0002070470146C86880B27047016141
:100640007047416170470AB1016100E04161704744
:10065000C16070474FF480320A43826181618261D8
:1006600082698269704702460020434B18684FF642
:100670008073184040EA021008433F4B18607047EF
:100680003E49C8617047F0B50A46002300240021A6
:10069000002500F00046B6F1004F02D1364EF16958
:1006A00001E0354E7168C0F3034583B200F4401693
:1006B000B6F5401F08D121F070612F4E766826F004
:1006C00070662D4F7E6012E000F48016B6F5801F34
:1006D00006D1032606FA05F4A14341F0706106E055
:1006E000460D360103FA06F6B14341F0706122B1BE
:1006F000460D360103FA06F6314300F00046B6F126
:10070000004F02D11C4EF16101E01B4E7160F0BD43
:1007100030B500228B071C0F0F2303FA04F2164B8F
:1007200008338C1053F824309343134C08348D1045
:1007300044F8253023468C1053F824308C07240FBE
:1007400000FA04F423430C4C08348D1044F825308F
:1007500030BD0A49DC3108607047000000080140E4
:10076000000C01400010014000140140001801403D
:10077000001C014000200140000001400000204218
:10078000DF48006840F00100DD4908600846406825
:10079000DC490840DA49486008460068DA49084000
:1007A000D74908600846006820F4802008600846A1
:1007B000406820F4FE0048604FF41F0088607047D6
:1007C000CF49096821F48031CD4A1160114609688A
:1007D00021F480211160B0F5803F03D0B0F5802F67
:1007E0000ED106E0C649096841F48031C44A11605F
:1007F00007E0C349096841F4A021C14A116000E043
:1008000000BF00BF704710B5014600220023002042
:100810004A11012A02D1BA4C236806E0022A02D109
:10082000B74C236A01E0B64C636A01F01F02012451
:1008300094401C400CB1012000E0002010BD38B5F0
:10084000002000900024002500BF3120FFF7DBFFCF
:1008500005460098401C00900098B0F5A06F01D0AC
:10086000002DF2D03120FFF7CEFF08B1012400E0C7
:100870000024204638BD01460020A14A106820F01F
:10088000F80040EAC10010607047A0490860704756
:10089000024600209A4B586820F47C1042EA01037B
:1008A0001843974B5860704798490866704701464F
:1008B0000020934A506820F00300084350607047BE
:1008C0008F48406800F00C007047014600208C4AB9
:1008D000506820F0F0000843506070470146002047
:1008E000874A506820F4E060084350607047014632
:1008F0000020834A506820F4605040EAC1005060F4
:10090000704729B17E4A527A02437D4B5A7204E005
:100910007B4A527A82437A4B5A7270477B49D8316C
:100920000860704701460020754A506820F4404036
:100930000843506070470021714A20321170704A9C
:1009400082F82010012802D004280AD104E00121F5
:100950006B4A2032117005E00521694A203211707E
:1009600000E000BF00BF70476949086070476449F4
:10097000096A0143624A1162704765494439086057
:10098000704730B500210022002400235C4D6D68C3
:1009900005F00C0121B1042905D0082923D105E077
:1009A0005C4D056022E05B4D05601FE0544D6D68B5
:1009B00005F47012524D6D6805F48034022505EB84
:1009C00092421CB9544D554305600BE04C4D6D6887
:1009D00005F400351DB1504D5543056002E04D4D05
:1009E0005543056002E04B4D056000BF00BF444D1C
:1009F0006D6805F0F0010909484D6B5C0568DD4044
:100A000045603F4D6D6805F4E061090A434D6B5C3C
:100A10004568DD4085603A4D6D6805F46051C90A4E
:100A20003E4D6B5C4568DD40C560354D6D6805F435
:100A30004041890B3A4D6B5CC568B5FBF3F5056128
:100A400030BD29B12E4A526902432D4B5A6104E050
:100A50002B4A526982432A4B5A61704729B1284A6E
:100A600092690243264B9A6104E0254A92698243C7
:100A7000234B9A61704729B1214AD2690243204B26
:100A8000DA6104E01E4AD26982431D4BDA61704785
:100A900029B11B4AD2680243194BDA6004E0184AB4
:100AA000D2688243164BDA60704729B1144A126942
:100AB0000243134B1A6104E0114A12698243104B3E
:100AC0001A61704712494039086070470F49C8647D
:100AD00070470B49C87170470948406A40F0807000
:100AE00007494862704701460020054A92680A405B
:100AF0000AB1012000E00020704701498872704768
:100B0000001002400000FFF8FFFFF6FE0000424226
:100B10008004424200127A0000093D0014000020C7
:100B20002400002010B50446FE48844208D101216B
:100B3000C014FFF7ADFF0021E014FFF7A9FFC4E0E8
:100B4000B4F1804F08D101210846FFF7AEFF002124
:100B50000120FFF7AAFFB8E0F348844208D1012141
:100B60000220FFF7A2FF00210220FFF79EFFACE06A
:100B7000EE48844208D101210420FFF796FF0021AE
:100B80000420FFF792FFA0E0E948844208D1012148
:100B90000820FFF78AFF00210820FFF786FF94E076
:100BA000E448844208D101211020FFF77EFF002194
:100BB0001020FFF77AFF88E0DF48844208D1012146
:100BC0002020FFF772FF00212020FFF76EFF7CE05E
:100BD000DA48844208D101214014FFF759FF00216F
:100BE0006014FFF755FF70E0D548844209D1012118
:100BF000C804FFF74DFF00214FF40020FFF748FF26
:100C000063E0D048844209D101210805FFF740FF85
:100C100000214FF48010FFF73BFF56E0CA488442A2
:100C200009D101214805FFF733FF00214FF40010DF
:100C3000FFF72EFF49E0C548844208D1012140203A
:100C4000FFF733FF00214020FFF72FFF3DE0C048B2
:100C5000844208D101218020FFF727FF0021802056
:100C6000FFF723FF31E0BB48844208D10121801502
:100C7000FFF71BFF0021A015FFF717FF25E0B6487F
:100C8000844209D101210804FFF702FF00214FF43B
:100C90008030FFF7FDFE18E0B048844209D1012101
:100CA0004804FFF7F5FE00214FF40030FFF7F0FE97
:100CB0000BE0AB48844208D101218804FFF7E8FE2D
:100CC00000214FF48020FFF7E3FE10BD00220288D0
:100CD000944B98420ED0994B98420BD0B0F1804F74
:100CE00008D0914B984205D0904B984202D0904B3F
:100CF000984204D14FF68F731A404B881A438D4B9C
:100D0000984207D08C4B984204D04FF6FF431A40CC
:100D1000CB881A4302808B8883850B880385814B9F
:100D200098420BD0854B984208D08B4B984205D007
:100D30008A4B984202D08A4B984201D10B7A0386A3
:100D400001238382704770B5002400220023058CA4
:100D50004FF6FE7635400584028C8388048B4FF66F
:100D60008F752C40B51E2C400D882C43751E2A40D3
:100D70000D892A434D882A436A4DA8420BD06F4DF6
:100D8000A84208D0744DA84205D0744DA84202D0A4
:100D9000734DA84213D14FF6F7752A404D892A4367
:100DA0004FF6FB752A408D882A434FF6FF652B408E
:100DB0004FF6FF552B408D892B43CD892B438380E4
:100DC0000483CD888586028470BD70B5002400221E
:100DD0000023058C4FF6EF7635400584028C83881E
:100DE000048B48F6FF752C404FF6FF452C400D88CC
:100DF0004FF6FF7606EA05252C434FF6DF752A40AD
:100E00000D8906EA05152A434D8806EA05152A4389
:100E1000444DA84202D0494DA8421DD14FF67F75DE
:100E20002A404D894FF6FF7606EA05152A434FF60C
:100E3000BF752A408D8806EA05152A434FF6FF350F
:100E40002B404FF2FF752B408D8906EA85052B4319
:100E5000CD8906EA85052B4383800483CD880587E9
:100E6000028470BD70B5002400220023058C4FF66B
:100E7000FF6635400584028C8388848B4FF68F751E
:100E80002C404FF6FC752C400D882C434FF6FF5537
:100E90002A400D894FF6FF7606EA05252A434D883C
:100EA00006EA05252A431F4DA84202D0234DA84239
:100EB0001DD14FF2FF752A404D894FF6FF7606EAA5
:100EC00005252A434FF6FF352A408D8806EA052579
:100ED0002A434EF6FF752B404DF6FF752B408D894A
:100EE00006EA05152B43CD8906EA05152B438380B9
:100EF0008483CD888587028470BD70B5002200236D
:100F00000024058C4EF6FF7635400584038C8488DA
:100F1000828B48F6FF752A404FF6FF452A400D8820
:100F200020E00000002C01400004004000080040C8
:100F3000000C00400010004000140040003401404C
:100F4000004C014000500140005401400018004096
:100F5000001C0040002000400040014000440140CF
:100F6000004801404FF6FF7606EA05252A434DF674
:100F7000FF752B400D8906EA05352B434D8806EA9F
:100F800005352B43FA4DA84202D0FA4DA84208D1AC
:100F90004BF6FF752C408D894FF6FF7606EA8515D6
:100FA0002C4384808283CD88A0F84050038470BD98
:100FB000828B4FF2FF331A408283828B4FF6FF738E
:100FC00003EA01231A4382837047F0B50C461546A5
:100FD000002200210026078C4EF6FF7C07EA0C0752
:100FE0000784828B018C4FF6FF7707EA043640F6C0
:100FF000FF473A404FF6FF7707EA05273A434FF697
:10100000FF7707EA03373A43D94FB8420ED0D94F9A
:10101000B8420BD0B0F1804F08D0D74FB84205D0BE
:10102000D64FB84202D0D64FB84206D14DF6FF7720
:10103000394046F48057394305E047F6FF573940B9
:1010400044F48057394382830184F0BD828B4FF68C
:10105000F3731A408283828B0A4382837047F0B510
:101060000C461546002200210026078C4FF6FF6C27
:1010700007EA0C070784828B018C4FF6FF7707EA9B
:1010800004264FF60C773A404FF6FF7707EA03172E
:101090002F433A43B64FB8420ED0B64FB8420BD0AA
:1010A000B0F1804F08D0B44FB84205D0B34FB8422A
:1010B00002D0B34FB84206D14FF6FF57394046F43D
:1010C0008077394305E04FF2FF57394044F4807789
:1010D000394382830184F0BD028B4FF2FF331A4003
:1010E0000283028B4FF6FF7303EA01231A43028344
:1010F0007047F0B50C461546002200210026078CEB
:101100004FF6EF7C07EA0C070784028B018C4FF641
:10111000FF7707EA041640F6FF473A404FF6FF779D
:1011200007EA03373A434FF6FF7707EA05273A43C2
:101130008F4FB8420ED08F4FB8420BD0B0F1804FD6
:1011400008D08D4FB84205D08C4FB84202D08C4F9A
:10115000B84206D14FF6DF77394046F010073943E1
:1011600005E04FF65F77394044F0100739430283BA
:101170000184F0BD028B4FF6F3731A400283028B99
:101180000A4302837047F0B50C4615460022002141
:10119000068C4FF6FE773E400684028B018C4FF69C
:1011A0000C7632407E1C06EA03162E433243704E04
:1011B000B0420ED06F4EB0420BD0B0F1804F08D08D
:1011C0006D4EB04205D06D4EB04202D06C4EB04272
:1011D00006D14FF6FD76314044F00106314305E07B
:1011E0004FF6F576314044F0010631430283018425
:1011F000F0BD70B505460C465D4885420ED05D4891
:1012000085420BD0B5F1804F08D05B48854205D0B0
:101210005A48854202D05A48854200D100E000BFBA
:10122000208850B92389A28861882846FFF7ABFF40
:10123000E1882846FFF79EFF25E0208804280AD190
:101240002389A28861882846FFF753FFE188284652
:10125000FFF742FF17E0208808280AD12389A288D7
:1012600061882846FFF7FBFEE1882846FFF7EEFE7F
:1012700009E02389A28861882846FFF7A6FEE18855
:101280002846FFF795FE70BD2DE9F04105460C4656
:1012900000260127608808B9022600E00026A08801
:1012A000012801D1022700E001272088A0B9238965
:1012B000A28861882846FFF766FFE1882846FFF785
:1012C00059FF23893A4631462846FFF712FFE18845
:1012D0002846FFF701FF13E02389A288618828468A
:1012E000FFF707FFE1882846FFF7F6FE23893A4615
:1012F00031462846FFF747FFE1882846FFF73AFFC7
:10130000BDE8F0810A884B881A438B881A43CB8842
:101310001A430B891A434B891A438B891A43A0F845
:10132000442070474FF6FF71818000210180C18009
:101330004180017270470021018041808180C1801D
:10134000018141818181C1817047002101804180FB
:10135000012181800021C18001817047002101802D
:1013600041808180C180018141818181704700007D
:10137000002C0140003401400004004000080040FF
:10138000000C004021B1028842F00102028004E01A
:1013900002884FF6FE731A400280704731B1B0F8F0
:1013A000442042F40042A0F8442005E0B0F8442074
:1013B000C2F30E02A0F8442070471AB183890B4390
:1013C000838102E083898B438381704781827047E8
:1013D00041EA0203A0F8483070471AB183890B43F1
:1013E000838102E083898B438381704701894FF6B3
:1013F000F8721140018170470A46002101894FF6B9
:101400008F73194011430181704730B504460D4672
:1014100029462046FFF7F0FF208940F00700208191
:1014200030BD2DE9F04104460D4616461F46602D9D
:1014300006D13B46012231462046FFF75AFE05E021
:101440003B46012231462046FFF79DFE29462046B5
:10145000FFF7D2FF208940F007002081BDE8F0812E
:1014600030B50C4600210189C9B24FF6FF7505EA77
:101470000325154325432943018130BD2DE9F04162
:1014800005460E4617469846002443463A463146DE
:101490002846FFF7E5FF2C894FF6F870044044F02A
:1014A00007044FF68F70044044F070042C81BDE8AF
:1014B000F081F0B504460D4616461F463B463246BF
:1014C00029462046FFF7CCFF208940F48040208148
:1014D000F0BD0185828270470A46002101884FF6DF
:1014E0008F731940114301807047F0B50C461546C3
:1014F0001E460021002200230189028B038C4FF637
:10150000F877394021434FF6FC473A4040F2011743
:101510003A434FF6DD773B404FF6FF7707EA061771
:101520002F433B43018102830384F0BD0A4600211F
:10153000018B4FF68F7319401143018370470A46A0
:101540000021018B48F6FF7319404FF6FF7303EA41
:1015500002231943018370470A460021818B4FF60D
:101560008F7319401143818370470A460021818B94
:1015700048F6FF7319404FF6FF7303EA022319433D
:101580008183704721B1028842F08002028004E02A
:1015900002884FF67F731A400280704721B182881B
:1015A00042F00402828004E082884FF6FB731A4006
:1015B0008280704721B1828842F00802828004E074
:1015C00082884FF6F7731A408280704721B1828873
:1015D00042F00102828004E082884FF6FE731A40D6
:1015E000828070470A460021018B4FF6F77319403D
:1015F0001143018370470A460021018B4FF2FF73AC
:1016000019404FF6FF7303EA022319430183704721
:101610000A460021818B4FF6F773194011438183ED
:1016200070470A460021818B4FF2FF7319404FF635
:10163000FF7303EA02231943818370470A4600219E
:10164000018B4FF6FB7319401143018370470A4623
:101650000021018B4FF6FF3319404FF6FF7303EA69
:1016600002231943018370470A460021818B4FF6FC
:10167000FB7319401143818370470A460021818B17
:101680004FF6FF3319404FF6FF7303EA0223194365
:10169000818370470A460021018B4FF67F73194002
:1016A0001143018370470A460021018BC1F30E01EB
:1016B0004FF6FF7303EA02231943018370470A467A
:1016C0000021818B4FF67F7319401143818370474E
:1016D0000A460021818BC1F30E014FF6FF7303EA26
:1016E00002231943818370470A460021018C4FF67B
:1016F000FD7319401143018470470A460021018C93
:101700004FF6F77319401143018470470A460021D0
:10171000018C4FF6DF7319404FF6FF7303EA021393
:101720001943018470470A460021018C4FF67F73EC
:1017300019404FF6FF7303EA0213194301847047FF
:101740000A460021018C4FF6FF5319404FF6FF73F4
:1017500003EA02231943018470470A460021018CE1
:101760004FF2FF7319404FF6FF7303EA0223194348
:10177000018470470A460021018C4DF6FF73194021
:101780004FF6FF7303EA023319430184704730B503
:10179000002301248C40A3B2048C9C430484048C59
:1017A00002FA01F5ADB22C43048430BD30B50023FC
:1017B00004248C40A3B2048C9C430484048C02FA5D
:1017C00001F5ADB22C43048430BD70B50346002052
:1017D00000241846183001258D40ACB21D8CA5435D
:1017E0001D8409B1082909D100EB6100056825F0C5
:1017F000700505600568154305600EE00D1FC5F313
:101800004E052844056825F4E045056005684FF657
:10181000FF7606EA02263543056070BD21B10288D5
:1018200042F00202028004E002884FF6FD731A4083
:101830000280704721B1028842F00402028004E075
:1018400002884FF6FB731A400280704721B18288EC
:1018500042F08002828004E082884FF67F731A4053
:101860008280704702884FF6F7731A400280028820
:101870000A430280704782884FF68F731A40828035
:1018800082880A438280704702894FF6F8731A40B3
:10189000028102890A430281704702894FF67F73F1
:1018A0001A40028102890A4302817047818470478D
:1018B00081857047818670470187704781877047AF
:1018C000A0F84010704702884FF6FF431A4002808C
:1018D00002880A43028070470146888E704701469D
:1018E000088F70470146888F70470146B1F8400065
:1018F00070470146888C70470146088D7047024644
:101900000020138A0B400BB1012000E0002070473B
:10191000CA430282704730B50246002000230024EB
:10192000158A05EA0103958905EA010413B10CB192
:10193000012000E0002030BDCA4302827047000051
:101940000120164908704FF4A060FEF7FDFC02204C
:1019500000F02CFF012000F029FF00F0CDFB00F08B
:10196000ADFC00F0C1FE002141F61F4000F0B8F9C7
:101970000A48007801280BD1472142F20F7000F08D
:10198000B7F901F00EF8312141F61F4000F06FF970
:1019900003E000F0B7FE01F05FF8FAE7280000204E
:1019A000704700BFFEE700BFFEE700BFFEE700BFD5
:1019B000FEE770477047704710B500F046F810BD5D
:1019C00030B50146B1F1807F01D3012030BD21F057
:1019D0007F40401E4FF0E022506150170F22002838
:1019E00007DA13071D0E3E4B00F00F04241F1D5590
:1019F00003E013071C0E3B4B1C5400BF00204FF0AC
:101A0000E0229061072010610020DFE710B5364822
:101A100000683649B0FBF1F42046FFF7D1FF08B16A
:101A200000BFFEE710BD01B53149009808604FF0D6
:101A3000E020006940F001004FF0E021086100BFA4
:101A40002B4800680028FBD108BD2948006820B158
:101A500027480068401E26490860704731B5224873
:101A600000682449B0FBF1F52846FFF7A9FF0024E0
:101A700008E000BF4FF0E020006900F4803000284B
:101A8000F8D0641C00988442F3D34FF0E020006942
:101A900020F001004FF0E021086138BD31B5124857
:101AA00000684FF47A71B0FBF1F52846FFF788FF24
:101AB000002408E000BF4FF0E020006900F480300F
:101AC0000028F8D0641C00988442F3D34FF0E02043
:101AD000006920F001004FF0E021086138BD0000EE
:101AE00018ED00E000E400E000000020A086010006
:101AF0003800002040420F0008B501210420FEF705
:101B0000ADFF4020ADF8000018208DF80300032041
:101B10008DF8020069466E48FEF7E4FC01210420BE
:101B2000FEF79CFF8020ADF8000018208DF8030020
:101B300003208DF8020069466548FEF7D3FC0121B9
:101B40000820FEF78BFF0120ADF8000018208DF86B
:101B5000030003208DF8020069465E48FEF7C2FCD0
:101B600001210820FEF77AFF0220ADF800001820BE
:101B70008DF8030003208DF8020069465548FEF7F2
:101B8000B1FC08BD30B587B005460C4601210220E6
:101B9000FEF771FFADF81450ADF810400020ADF81D
:101BA0001200ADF8160004A94B48FFF78FF860202B
:101BB000ADF800000120ADF802000020ADF80600ED
:101BC000ADF8080069464448FFF7BDF86020ADF85D
:101BD00000000120ADF802000020ADF80600ADF8CD
:101BE000080069463C48FFF7F0F86020ADF80000B7
:101BF0000120ADF802000020ADF80600ADF80800A5
:101C000069463548FFF72EF96020ADF80000012045
:101C1000ADF802000020ADF80600ADF808006946F6
:101C20002D48FFF76AF908212B48FFF7DBFC082154
:101C30002948FFF7E0FC08212748FFF7E9FC0821C5
:101C40002548FFF7EEFC01212348FFF79BFC01210B
:101C50002148FFF797FB07B030BD70B504460D462D
:101C6000FFF74AFF29462046FFF78CFF70BD7FB57E
:101C700005460C4632208DF8000002208DF8010048
:101C800001208DF802008DF803006846FEF761FB25
:101C900001210820FEF7EFFEADF80850ADF8044032
:101CA0000020ADF80600ADF80A0001A90B48FFF7C7
:101CB0000DF801210948FFF72BFE012211460748C4
:101CC000FFF77BFB01210548FFF75CFB7FBD0000B0
:101CD00000080140000C014000040040000C0040DE
:101CE00070B504460D4629462046FFF7B6FF70BD85
:101CF00030B589B005460C460121C802FEF7AEFE9C
:101D000001210420FEF7AAFE18208DF823004FF4CD
:101D10008070ADF8200003208DF8220008A9374814
:101D2000FEF7E0FBADF81850ADF814400020ADF818
:101D30001600ADF81A0005A93148FEF7C7FF60206C
:101D4000ADF804000120ADF806000020ADF80A004F
:101D5000ADF80C00ADF8100001A92948FEF7F3FF1B
:101D600008212748FFF73EFC01212548FFF716FB15
:101D700001212348FFF706FC01212148FFF702FB60
:101D8000204800881E493431088009B030BD70B544
:101D900004460D461C480078012805D119480088E2
:101DA00081B21748FFF786FD002C08DA4FF4E150A6
:101DB0001649088004F5E150091D088008E04FF439
:101DC000E1501249091D0880C4F5E150091F08803F
:101DD000002D09DA4FF4E1500C490831088005F56F
:101DE000E150091D088008E04FF4E15007490C312B
:101DF0000880C5F5E150091F088070BD000801404A
:101E0000002C0140980000202800002034040040ED
:101E100010B50A461AB10123FE4C236002E00023EC
:101E2000FC4C2360002115E00023FB4C236000F0F4
:101E3000800323B10123F74C0834236003E000231F
:101E4000F44C083423600123F34C23604306180E3E
:101E50004B1CD9B20829E7DB0123EE4C236010BDEF
:101E600030B500241CE004F1B001C8B20021FFF736
:101E7000CFFF00210846FFF7CBFF00211020FFF71E
:101E8000C7FF002508E0E54901EBC501085D012118
:101E9000FFF7BEFF681CC5B2802DF4DB601CC4B226
:101EA000082CE0DB30BD00B500218D20FFF7B0FF2E
:101EB00000211420FFF7ACFF0021AF20FFF7A8FF9F
:101EC00000BD00B500218D20FFF7A2FF00211020EA
:101ED000FFF79EFF0021AE20FFF79AFF00BD30B54F
:101EE00000240CE0002506E00020CC4901EBC501F0
:101EF0000855681CC5B2802DF6DB601CC4B2082CE6
:101F0000F0DBFFF7ADFF30BDF0B5144600267F28AB
:101F100001DC3F2900DDF0BD0B46CF1701EB577701
:101F2000FF10C7F10707FAB2CF1701EB5777FF1081
:101F3000A1EBC707FDB2C5F107070123BB40DEB225
:101F40004CB1B64B03EBC0039B5C3343B34F07EB81
:101F5000C007BB5408E0B14B03EBC0039B5CB34329
:101F6000AE4F07EBC007BB5400BFD4E72DE9F04FDD
:101F700080460C4615461E46A346A5F12000C5B274
:101F800000273EE00C2E07D105EB4500A44901EBEC
:101F9000800010F8079004E0A24800EB051010F84C
:101FA00007904FF0000A26E009F0800028B1214692
:101FB0004046099AFFF7A8FF09E0099808B90120EF
:101FC00000E00020024621464046FFF79DFF4FEA11
:101FD00049604FEA1069601CC4B2A4EB0B00B04228
:101FE00005D15C4608F1010000F0FF0806E00AF1A7
:101FF000010000F0FF0ABAF1080FD5DB00BF781C22
:10200000C7B2B742BEDBBDE8F08F10B50246012073
:1020100000E050430B1EA1F10104E1B2F9D110BD63
:102020002DE9FF4F81B0074691461E460E9D4FF0A9
:10203000000A002439E0301B401EC1B20A20FFF71D
:10204000E4FFB9FBF0F00A21B0FBF1F201FB12084A
:10205000BAF1000F16D1701EA04213DDB8F1000FC7
:102060000ED10120AB4605EBDB71491001FB047179
:102070000090C8B22B4620220299FFF777FF12E0AA
:102080004FF0010A0120AB4605EBDB71491001FB63
:1020900004710090C8B208F13001CAB22B4602990F
:1020A000FFF764FF00BF601CC4B2B442C3DB05B0DD
:1020B000BDE8F08F78B505460E46144618E07A2D37
:1020C00003DD002506F11000C6B23A2E04DD002023
:1020D00005460646FFF703FF0120009022780C23F7
:1020E00031462846FFF742FF05F10800C5B2641CDF
:1020F00020780028E3D178BD08B5022000F056FB17
:10210000012000F053FB01211820FEF7A7FC01215C
:102110000820FEF7A3FC4FF48040ADF8000010202B
:102120008DF8030003208DF8020069463E48FEF753
:10213000D9F92020ADF8000010208DF8030003200D
:102140008DF8020069463948FEF7CCF91020ADF849
:1021500000008DF8030003208DF802006946334823
:10216000FEF7C0F90820ADF8000010208DF803003C
:1021700003208DF8020069462C48FEF7B3F90020D1
:102180002449091D08606420FFF788FC01202849C4
:10219000C1F890010021AE20FFF73AFE0021D520C2
:1021A000FFF736FE00215020FFF732FE0021A82065
:1021B000FFF72EFE00213F20FFF72AFE0021D3204B
:1021C000FFF726FE00210846FFF722FE00214020EF
:1021D000FFF71EFE00218D20FFF71AFE00211420BC
:1021E000FFF716FE00212020FFF712FE002102203B
:1021F000FFF70EFE0021A120FFF70AFE0021C020FC
:10220000FFF706FE0021DA20FFF702FE0021122070
:1022100010E000008C812142B8012242A000002081
:10222000862E0008FA32000800100140000C014020
:1022300000802142FFF7ECFD00218120FFF7E8FD3F
:102240000021EF20FFF7E4FD0021D920FFF7E0FD9A
:102250000021F120FFF7DCFD0021DB20FFF7D8FD96
:1022600000213020FFF7D4FD0021A420FFF7D0FD8E
:102270000021A620FFF7CCFD0021AF20FFF7C8FD0D
:10228000FFF72DFE08BD10B500210022C306190E70
:102290000CE0002206E00023074C04EBC204635468
:1022A000531CDAB2802AF6DB4B1CD9B2431CB1EBCB
:1022B000C30FEEDB10BD0000A000002008B5012117
:1022C0001820FEF7CBFB01211020FEF7C7FB4820AA
:1022D0008DF803004FF48070ADF800006946F948AE
:1022E000FEF700F910208DF803004001ADF8000062
:1022F00003208DF802006946F348FEF7F3F810203A
:102300008DF80300ADF8000003208DF80200694647
:10231000ED48FEF7E7F810208DF803000001ADF856
:10232000000003208DF802006946E748FEF7DAF85E
:1023300008BD38B50446012000900020E3494870EC
:10234000012000902EE0BDF80000204018B10120CF
:10235000DF49086002E00020DD4908600120DC4917
:10236000091F08600520FFF779FB0020D949C1F853
:10237000A0010520FFF772FB0120D649C1F8A0019A
:10238000D548D0F8200130B1D0484078BDF80010D1
:102390000843CE494870BDF800004FF6FF7101EACE
:1023A00040000090BDF80000FF28CCDD1020FFF7B2
:1023B00055FB38BD10B50020C54914390860C74920
:1023C0000878FFF7B6FFC5494878FFF7B2FF01204C
:1023D000C049C1F89001BD484078732801D1002060
:1023E00010BD0120FCE71CB50020019001200090E9
:1023F0000020B74914390860B8490878FFF799FFF9
:10240000B6494878FFF795FF0220019036E0012099
:10241000009027E00120AE49091F08600520FFF762
:102420001DFB0020AB49C1F8A0010520FFF716FBFA
:102430000120A849C1F8A001A748D0F8200150B157
:10244000A2489DF80410405CBDF8001008439F4965
:102450009DF804208854BDF800004FF6FF7101EA92
:1024600040000090BDF80000FF28D3DD1020FFF7EA
:10247000F5FA9DF80400401CC0B201909DF80400DC
:102480000928C4DB01209249143908601CBD0020D2
:1024900004E000218D4A1154411CC8B20928F8DB20
:1024A000704710B5FFF7F3FFFFF79DFF8748C0782F
:1024B0008649097940EA01208949088000240FE013
:1024C000884810F81400401E012101FA00F08449E8
:1024D0000988084010B9601CC0B210BD601CC4B2AD
:1024E000102CEDDB0020F8E701467848405C70478F
:1024F00070B505460C460020754914390860102057
:10250000FFF7ACFA0120FFF714FF4220FFF711FF9D
:102510000020FFF70EFF2846FFF70BFF2046FFF7CE
:1025200008FF0020FFF705FF0020FFF702FF002053
:10253000FFF7FFFE0020FFF7FCFE01206549C1F810
:1025400090011020FFF78AFA70BD10B50020604995
:10255000143908601020FFF781FA0120FFF7E9FE27
:102560004220FFF7E6FE0020FFF7E3FE0020FFF722
:10257000E0FE0020FFF7DDFE01205649C1F8900182
:102580001020FFF76BFA10BD10B500205049143928
:1025900008601020FFF762FA0120FFF7CAFE43200F
:1025A000FFF7C7FE0020FFF7C4FE0120FFF7C1FEC2
:1025B0000020FFF7BEFE0020FFF7BBFE0020FFF764
:1025C000B8FE0020FFF7B5FE0020FFF7B2FE0120A5
:1025D0004049C1F890011020FFF740FA10BD10B536
:1025E00000203B49143908600120FFF7A2FE442077
:1025F000FFF79FFE0020FFF79CFE0120FFF799FEEA
:102600000320FFF796FE0020FFF793FE0020FFF760
:1026100090FE0020FFF78DFE0020FFF78AFE0120CC
:102620002C49C1F890011020FFF718FA10BD10B521
:1026300000202749143908601020FFF70FFA012005
:10264000FFF777FE4D20FFF774FE0020FFF771FEC5
:102650000020FFF76EFE0120FFF76BFE01201D49F1
:10266000C1F890011020FFF7F9F910BD10B5002056
:102670001749143908601020FFF7F0F90120FFF71F
:1026800058FE4320FFF755FE0020FFF752FE0020C2
:10269000FFF74FFE5A20FFF74CFE5A20FFF749FE86
:1026A0005A20FFF746FE5A20FFF743FE5A20FFF755
:1026B00040FE01200749C1F890011020FFF7CEF934
:1026C00010BD0000000C014000100140A0040020DB
:1026D000A401224200002242008021423E0000204C
:1026E0003C0000204000002010B5FFF72EFFFFF750
:1026F0002CFFFFF72AFFFFF747FFFFF770FFFFF7F9
:10270000B5FF10BD10B5FFF7CCFE1C4908600720CF
:10271000FFF7EAFE1A4908600820FFF7E5FE1949AD
:1027200008600520FFF7E0FE174908600620FFF764
:10273000DBFE1649086011480068042805D11448DA
:10274000007810B90120134908601248006898B158
:102750000C48006876280FDA0D48007860B901202F
:102760000B4908700C480D4908600D480078012895
:1027700002D10C480C49086010BD00007000002018
:102780006000002064000020680000206C00002031
:1027900034000020740000200000AF438C000020B3
:1027A00028000020DB0F493F900000200146490629
:1027B000244A926942F00102224B9A61224A5268ED
:1027C00022F0E062204B5A601A4652680A435A606F
:1027D000704708B50220FFF7E9FF0120FFF7E6FF89
:1027E00001210420FEF73AF94FF40040ADF8000053
:1027F00010208DF8030002208DF80200694613486E
:10280000FDF770FE4FF400411048FDF71AFF08BDB8
:1028100028B94FF400410D4A1432116011E00C49FF
:102820000968491C0A4A116081420ADB07490C31D8
:10283000096881F40041054A0C3211600021044A04
:102840001160704700100240000001400008014084
:10285000780000202DE9F041142462480068C0F19E
:10286000800561480068C0F180066042854202DD53
:10287000A54200DA00256042864202DDA64200DA67
:102880000026284600F070FA07464FF08641574868
:10289000006800F02BFA8046394600F0F5F95449FB
:1028A000086054480078012811D1304600F05CFAE5
:1028B00080464FF086415048006800F017FA80F0DB
:1028C00000474146384600F0DFF94C4908604C4863
:1028D00000680B281CD14B480078401CC0B2494905
:1028E0000870142839D1002045490860454908700E
:1028F00045493E48006800F06FF93C4907460860CA
:10290000424900F05DFA28D240483849086024E086
:102910003B4800680C281CD13D480078401CC0B2E0
:102920003B490870142818D10020354908603849FF
:10293000087035492D48006800F0A0F92B4907467A
:102940000860344900F032FA07D23248274908605B
:1029500003E000202E49087008702F4924480068C1
:1029600000F0C4F9224908602448006880F0004063
:1029700022490860BDE8F08110B501212748FEF723
:10298000CAFF60B101212548FEF7D6FF2448007830
:1029900028B924480078012801D1FFF75BFF002007
:1029A00010BD1448007818B112480078012806D1EB
:1029B0001D481E4908601E481E49086010E00D4869
:1029C0000078022806D11C48184908601B4819499C
:1029D000086005E01A48154908601A48154908605A
:1029E0007047000064000020680000208C00002078
:1029F0007C000020280000209000002080000020A3
:102A0000700000209C0000200000C84100004844E5
:102A10009D0000200000524300007A44000C00405A
:102A20009400002034000020D589573E2C0000205F
:102A30007D3F353E30000020A3540A3E713D0A3EE2
:102A4000308C0D3E8D976E3E0146002901DD0A4611
:102A500000E04A4290B2704738B54FF480613F4879
:102A600000F0AFF83E480078002873D13DA2002165
:102A70003220FFF71FFB3D480078012805D13CA21A
:102A80000A210020FFF716FB04E03CA20A210020E7
:102A9000FFF710FB35480078012805D134A20A2140
:102AA0000020FFF707FB46E037A214210020FFF7C4
:102AB00001FB00213648006800F078F905D235A204
:102AC00014213220FFF7F6FA04E033A21421322059
:102AD000FFF7F0FA2E48006800F04FF90546FFF7BF
:102AE000B3FF04460C2004232246142100903C200E
:102AF000FFF796FA00212948006800F057F905D23F
:102B000024A214215E20FFF7D5FA04E022A21421AA
:102B10005E20FFF7CFFA2148006800F02EF9054645
:102B2000FFF792FF04460C20032322461421009055
:102B30006A20FFF775FA1A480078012805D119A212
:102B400032210020FFF7B6FA04E018A2322100205B
:102B5000FFF7B0FAFFF784F938BD0000A0000020AD
:102B6000940000204E6F726D616C200034000020D4
:102B70005053322020202020202000004C494E4B72
:102B8000494E472E2E2E000053504545443A000032
:102B90008C0000202D0000002B0000009000002081
:102BA00028000020414B4D20200000004254414E9F
:102BB0004B000000D2B201E000F8012B491EFBD20D
:102BC00070470022F6E710B513460A460446194638
:102BD000FFF7F0FF204610BDF0B480EA0102D40FE9
:102BE0004200B2EB410F02D20246084611464A00AB
:102BF00042D0C30DDDB2C1F3C752AD1A202D35DA74
:102C0000C1F3160141F4000204B15242C5F120069D
:102C100002FA06F12A411044B3EBD05F23D0C4B1CD
:102C2000012DA0EBC35009DCF0BC4FF0004202EADA
:102C3000C352DBB200F5000000F0D5B8400000F14F
:102C4000807000EBC350A0F1807040EAD170490061
:102C500009E0490841EAC071A0EBC35000F500004B
:102C6000400800EBC350F0BC00F0B4B86142012250
:102C700002EB4101001BF6E7F0BC704781F0004118
:102C8000AAE780F00040A7E780EA010210B502F051
:102C90000043400022D04A001FD0010E01EB126118
:102CA000C0F35600C2F3560240F4000042F40002A2
:102CB000A0FB022000047F39140400D0401C50EA1D
:102CC000124001D44000491EC2B20C0604EBD010E1
:102CD000401C4008802A02D003E0002010BD20F0F4
:102CE0000100002900DA0020184310BD30B480EA4A
:102CF000010202F0004530F0004221F0004013D004
:102D000090B1C30DD40DC2F31601C0F31600E41A3E
:102D100041F4000140F400027D34914201D3641C6F
:102D200000E04900002C02DA30BC002070474FF46C
:102D300000000023914201D3891A034340084FEA5F
:102D40004101F7D151B1914202D14FF0004105E06C
:102D500002D24FF0010101E06FF0010103EBC4501A
:102D6000284430BC00F036B8C10F80EAE070084457
:102D7000CA079623002100F036B800F0004220F088
:102D80000040C10DC0F3160040F400007F2901DAB5
:102D900000207047962903DCC1F19601C84001E08C
:102DA00096398840002AF4D040427047002801DB61
:102DB000C0F10040002901DBC1F1004181427047B0
:102DC000002801DBC0F10040002901DBC1F1004116
:102DD000884270470029A8BF7047401C490008BFBF
:102DE00020F00100704710B4B0FA80FC00FA0CF03B
:102DF00050EA010404BF10BC704749B1CCF1200473
:102E000021FA04F411FA0CF118BF012121430843FF
:102E1000A3EB0C01CB1D4FEA00614FEA102042BF2B
:102E2000002010BC704700EBC35010440029A4BF21
:102E300010BC7047401C490008BF20F0010010BCC6
:102E400070470000064C074D06E0E06840F00103C3
:102E500094E8070098471034AC42F6D3FDF76CF9BC
:102E6000EC3800080C39000802E008C8121F08C13D
:102E7000002AFAD170477047002001E001C1121FFB
:102E8000002AFBD170470000000000000000000095
:102E90000000000000003F400000000000000000B3
:102EA0003000400030004000000009000BC03D0031
:102EB0000BC03D00090018C024407FE02240318053
:102EC0000000180024C01B000D80324001800380E8
:102ED0001C4027401C80074000401000600000009C
:102EE0000000000000000000000000001F802040E3
:102EF00040200000402020401F800000000009000A
:102F000006001F80060009000000040004003F8046
:102F10000400040000000010006000000000000039
:102F2000000004000400040004000400000000008D
:102F300000400000000000000000002001C006006A
:102F40003800400000001F802040204020401F80AB
:102F50000000000010403FC000400000000018C00A
:102F6000214022402440184000001080204024408E
:102F700024401B80000002000D0011003FC00140F2
:102F800000003C80244024402440238000001F8017
:102F9000244024403440038000003000200027C03B
:102FA0003800200000001B802440244024401B8067
:102FB00000001C0022C0224022401F8000000000B0
:102FC0000000084000000000000000000000046055
:102FD000000000000000000004000A001100208032
:102FE0004040090009000900090009000000000034
:102FF0004040208011000A000400180020002340F7
:103000002400180000001F802040274029401F4056
:103010000000004007C039000F0001C00040204000
:103020003FC0244024401B8000001F8020402040DF
:1030300020403080000020403FC0204020401F80C2
:10304000000020403FC024402E4030C000002040FF
:103050003FC024402E00300000000F0010802040B0
:1030600022403380020020403FC0040004003FC0E3
:103070002040204020403FC0204020400000006011
:10308000202020203FC02000200020403FC02440BE
:103090000B0030C0204020403FC020400040004096
:1030A00000C03FC03C0003C03C003FC000002040C7
:1030B0003FC00C4023003FC020001F802040204024
:1030C00020401F80000020403FC024402400180002
:1030D00000001F802140214020E01FA00000204070
:1030E0003FC02440260019C0004018C0244024409E
:1030F000224031800000300020403FC0204030009E
:10310000000020003F80004000403F802000200061
:103110003E0001C0070038002000380007C03C0016
:1031200007C038000000204039C0060039C02040E8
:1031300000002000384007C0384020000000304028
:1031400021C02640384020C00000000000007FE081
:10315000402040200000000070000C000380004070
:1031600000000000402040207FE000000000000040
:10317000200040002000000000000010001000109F
:1031800000100010001000000000400000000000CF
:103190000000000002800540054003C00040200000
:1031A0003FC004400440038000000000038004404E
:1031B00004400640000000000380044024403FC05B
:1031C000004000000380054005400340000000006F
:1031D00004401FC0244024402000000002E00550AD
:1031E00005500650042020403FC00440040003C0A6
:1031F00000400000044027C0004000000000001014
:103200000010041027E00000000020403FC00140F3
:10321000070004C00440204020403FC00040004060
:10322000000007C0040007C0040003C00000044001
:1032300007C00440040003C00040000003800440B5
:10324000044003800000041007F004500440038091
:103250000000000003800440045007F00010044008
:1032600007C00240040004000000000006400540C2
:10327000054004C00000000004001F80044000401E
:103280000000040007800040044007C00040040024
:10329000070004C0018006000400060001C007000A
:1032A00001C006000000044006C0010006C0044042
:1032B00000000410071004E0018006000400000074
:1032C000044005C006400440000000000000040067
:1032D0007BE040200000000000000000FFF0000044
:1032E0000000000040207BE00400000000004000DF
:1032F000800040002000200040000000000000008E
:1033000000000000000000000000000000000000BD
:103310001FCC000C0000000000000000080030007E
:1033200060000800300060000000022003FC1E2046
:10333000022003FC1E200220000000000E181104D1
:103340003FFF10840C78000000000F0010840F383D
:1033500000C0077818840078000000780F8410C43B
:1033600011240E9800E40084000808006800700032
:10337000000000000000000000000000000000004D
:1033800007E018182004400200000000400220045A
:10339000181807E000000000000002400240018011
:1033A0000FF0018002400240000000800080008099
:1033B0000FF800800080008000000001000D000E6A
:1033C00000000000000000000000000000800080FD
:1033D000008000800080008000800000000C000C55
:1033E00000000000000000000000000000060018BF
:1033F00000600180060018002000000007F00808A7
:1034000010041004080807F0000000000804080475
:103410001FFC000400040000000000000E0C10144B
:103420001024104411840E0C000000000C1810042D
:103430001104110412880C700000000000E0032049
:10344000042408241FFC0024000000001F9810849E
:1034500011041104108810700000000007F00888A3
:103460001104110418880070000000001C001000F6
:1034700010FC13001C001000000000000E38114466
:103480001084108411440E38000000000700088CDE
:1034900010441044088807F00000000000000000FD
:1034A000030C030C000000000000000000000001FD
:1034B0000106000000000000000000000080014044
:1034C000022004100808100400000220022002203C
:1034D0000220022002200220000000001004080840
:1034E0000410022001400080000000000E001200C5
:1034F000100C106C10800F00000003E00C1813E497
:10350000142417C4082807D000000004003C03C49A
:103510001C40074000E4001C000410041FFC1104C0
:10352000110411040E880070000003E00C18100450
:103530001004100410081C10000010041FFC1004DC
:1035400010041004080807F0000010041FFC110408
:10355000110417C410040818000010041FFC110403
:10356000110017C010000800000003E00C18100440
:10357000100410441C780040000010041FFC10844C
:103580000080008010841FFC100400001004100450
:103590001FFC1004100400000000000300011001D3
:1035A00010011FFE10001000000010041FFC110489
:1035B00003801464181C1004000010041FFC100485
:1035C000000400040004000C000010041FFC1F0095
:1035D00000FC1F001FFC1004000010041FFC0C0462
:1035E000030000E010181FFC100007F0080810048A
:1035F00010041004080807F0000010041FFC1084D9
:103600001080108010800F00000007F008181024B0
:103610001024101C080A07F2000010041FFC1104FB
:10362000110011C011300E0C000400000E1C11041A
:103630001084108410441C3800001800100010047E
:103640001FFC100410001800000010001FF81004E8
:103650000004000410041FF8100010001E0011E008
:10366000001C007013801C0010001FC0103C00E004
:103670001F0000E0103C1FC000001004180C16349E
:1036800001C001C01634180C100410001C001304F3
:1036900000FC13041C00100000000804101C10643F
:1036A000108413041C041018000000000000000027
:1036B0007FFE4002400240020000000030000C008B
:1036C00003800060001C0003000000004002400274
:1036D00040027FFE0000000000000000000020000B
:1036E00040004000400020000000000100010001F7
:1036F0000001000100010001000100004000400045
:1037000020000000000000000000000000980124DC
:1037100001440144014400FC000410001FFC008827
:10372000010401040088007000000000007000889F
:1037300001040104010400880000000000700088FA
:103740000104010411081FFC0004000000F80144FA
:1037500001440144014400C80000000001040104C8
:103760000FFC1104110411001800000000D60129FB
:103770000129012901C90106000010041FFC008471
:1037800001000100010400FC000400000104190410
:1037900019FC000400040000000000000003000108
:1037A0000101190119FE0000000010041FFC002493
:1037B000004001B4010C01040000000010041004DA
:1037C0001FFC0004000400000000010401FC0104CF
:1037D000010001FC0104010000FC010401FC008463
:1037E00001000100010400FC0004000000F80104D5
:1037F00001040104010400F80000010101FF00853B
:1038000001040104008800700000000000700088BE
:1038100001040104010501FF00010104010401FC90
:1038200000840104010001800000000000CC01249C
:10383000012401240124019800000000010001007E
:1038400007F80104010400000000010001F8000471
:1038500000040004010801FC000401000180017063
:10386000000C001001600180010001F0010C00302B
:1038700001C00030010C01F0010000000104018CC6
:1038800000740170018C01040000010101810171CB
:10389000000E001801600180010000000184010C8D
:1038A000013401440184010C00000000000000000C
:1038B000000001003EFC4002400200000000000049
:1038C0000000FFFF00000000000000004002400276
:1038D0003EFC0100000000000000000060008000CD
:1038E0008000400040002000200000000C3900084B
:1038F00000000020A0000000682E0008AC3900087D
:10390000A000002010080000782E000800A24A0441
:10391000000000000000000001020304060708097F
:103920000000000001020304010203040607080965
:103930000204060800000000000000000000000073
:103940000000000000000000000001420100020031
:1039500003000400050006000700080009000A0033
:103960000B000C000D000E000F0010000000000006
:103970000000000000000000000000000000000047
:103980000000000000000000000000000000000037
:103990000000000000000000000000000000000027
:0C39A00000000000DC050000000000003A
:0400000508000131BD
:00000001FF
